{
  "contractName": "ProfitShare",
  "abi": [
    {
      "constant": true,
      "inputs": [],
      "name": "name",
      "outputs": [
        {
          "name": "",
          "type": "string"
        }
      ],
      "payable": false,
      "stateMutability": "view",
      "type": "function"
    },
    {
      "constant": false,
      "inputs": [
        {
          "name": "_spender",
          "type": "address"
        },
        {
          "name": "_value",
          "type": "uint256"
        }
      ],
      "name": "approve",
      "outputs": [
        {
          "name": "",
          "type": "bool"
        }
      ],
      "payable": false,
      "stateMutability": "nonpayable",
      "type": "function"
    },
    {
      "constant": true,
      "inputs": [],
      "name": "totalSupply",
      "outputs": [
        {
          "name": "",
          "type": "uint256"
        }
      ],
      "payable": false,
      "stateMutability": "view",
      "type": "function"
    },
    {
      "constant": true,
      "inputs": [],
      "name": "fundsWallet",
      "outputs": [
        {
          "name": "",
          "type": "address"
        }
      ],
      "payable": false,
      "stateMutability": "view",
      "type": "function"
    },
    {
      "constant": true,
      "inputs": [],
      "name": "decimals",
      "outputs": [
        {
          "name": "",
          "type": "uint256"
        }
      ],
      "payable": false,
      "stateMutability": "view",
      "type": "function"
    },
    {
      "constant": false,
      "inputs": [
        {
          "name": "_spender",
          "type": "address"
        },
        {
          "name": "_subtractedValue",
          "type": "uint256"
        }
      ],
      "name": "decreaseApproval",
      "outputs": [
        {
          "name": "",
          "type": "bool"
        }
      ],
      "payable": false,
      "stateMutability": "nonpayable",
      "type": "function"
    },
    {
      "constant": true,
      "inputs": [],
      "name": "totalShareable",
      "outputs": [
        {
          "name": "",
          "type": "uint256"
        }
      ],
      "payable": false,
      "stateMutability": "view",
      "type": "function"
    },
    {
      "constant": true,
      "inputs": [
        {
          "name": "_owner",
          "type": "address"
        }
      ],
      "name": "balanceOf",
      "outputs": [
        {
          "name": "balance",
          "type": "uint256"
        }
      ],
      "payable": false,
      "stateMutability": "view",
      "type": "function"
    },
    {
      "constant": true,
      "inputs": [],
      "name": "coinPerETH",
      "outputs": [
        {
          "name": "",
          "type": "uint256"
        }
      ],
      "payable": false,
      "stateMutability": "view",
      "type": "function"
    },
    {
      "constant": true,
      "inputs": [],
      "name": "symbol",
      "outputs": [
        {
          "name": "",
          "type": "string"
        }
      ],
      "payable": false,
      "stateMutability": "view",
      "type": "function"
    },
    {
      "constant": true,
      "inputs": [
        {
          "name": "",
          "type": "uint256"
        }
      ],
      "name": "allUsers",
      "outputs": [
        {
          "name": "",
          "type": "address"
        }
      ],
      "payable": false,
      "stateMutability": "view",
      "type": "function"
    },
    {
      "constant": true,
      "inputs": [],
      "name": "totalRaised",
      "outputs": [
        {
          "name": "",
          "type": "uint256"
        }
      ],
      "payable": false,
      "stateMutability": "view",
      "type": "function"
    },
    {
      "constant": false,
      "inputs": [
        {
          "name": "_spender",
          "type": "address"
        },
        {
          "name": "_addedValue",
          "type": "uint256"
        }
      ],
      "name": "increaseApproval",
      "outputs": [
        {
          "name": "",
          "type": "bool"
        }
      ],
      "payable": false,
      "stateMutability": "nonpayable",
      "type": "function"
    },
    {
      "constant": true,
      "inputs": [
        {
          "name": "_owner",
          "type": "address"
        },
        {
          "name": "_spender",
          "type": "address"
        }
      ],
      "name": "allowance",
      "outputs": [
        {
          "name": "",
          "type": "uint256"
        }
      ],
      "payable": false,
      "stateMutability": "view",
      "type": "function"
    },
    {
      "constant": true,
      "inputs": [],
      "name": "totalActiveCoins",
      "outputs": [
        {
          "name": "",
          "type": "uint256"
        }
      ],
      "payable": false,
      "stateMutability": "view",
      "type": "function"
    },
    {
      "inputs": [],
      "payable": false,
      "stateMutability": "nonpayable",
      "type": "constructor"
    },
    {
      "payable": true,
      "stateMutability": "payable",
      "type": "fallback"
    },
    {
      "anonymous": false,
      "inputs": [
        {
          "indexed": true,
          "name": "owner",
          "type": "address"
        },
        {
          "indexed": true,
          "name": "spender",
          "type": "address"
        },
        {
          "indexed": false,
          "name": "value",
          "type": "uint256"
        }
      ],
      "name": "Approval",
      "type": "event"
    },
    {
      "anonymous": false,
      "inputs": [
        {
          "indexed": true,
          "name": "from",
          "type": "address"
        },
        {
          "indexed": true,
          "name": "to",
          "type": "address"
        },
        {
          "indexed": false,
          "name": "value",
          "type": "uint256"
        }
      ],
      "name": "Transfer",
      "type": "event"
    },
    {
      "constant": false,
      "inputs": [],
      "name": "shareProfits",
      "outputs": [],
      "payable": false,
      "stateMutability": "nonpayable",
      "type": "function"
    },
    {
      "constant": true,
      "inputs": [
        {
          "name": "index",
          "type": "uint256"
        }
      ],
      "name": "getUser",
      "outputs": [
        {
          "name": "",
          "type": "address"
        }
      ],
      "payable": false,
      "stateMutability": "view",
      "type": "function"
    },
    {
      "constant": true,
      "inputs": [
        {
          "name": "weiAmount",
          "type": "uint256"
        }
      ],
      "name": "calculateTokenAmount",
      "outputs": [
        {
          "name": "",
          "type": "uint256"
        }
      ],
      "payable": false,
      "stateMutability": "view",
      "type": "function"
    },
    {
      "constant": false,
      "inputs": [
        {
          "name": "_to",
          "type": "address"
        },
        {
          "name": "_value",
          "type": "uint256"
        }
      ],
      "name": "transfer",
      "outputs": [
        {
          "name": "",
          "type": "bool"
        }
      ],
      "payable": false,
      "stateMutability": "nonpayable",
      "type": "function"
    },
    {
      "constant": false,
      "inputs": [
        {
          "name": "_from",
          "type": "address"
        },
        {
          "name": "_to",
          "type": "address"
        },
        {
          "name": "_value",
          "type": "uint256"
        }
      ],
      "name": "transferFrom",
      "outputs": [
        {
          "name": "",
          "type": "bool"
        }
      ],
      "payable": false,
      "stateMutability": "nonpayable",
      "type": "function"
    }
  ],
  "bytecode": "0x60606040526040805190810160405280601181526020017f50726f666974536861726520546f6b656e0000000000000000000000000000008152506003908051906020019062000051929190620001fd565b506040805190810160405280600681526020017f5053686172650000000000000000000000000000000000000000000000000000815250600490805190602001906200009f929190620001fd565b506012600555600554600a0a630fea18c002600655620154cd600a553415620000c757600080fd5b738c7704ea2d934692b21419bf2a5ac6165a45ce98600c60006101000a81548173ffffffffffffffffffffffffffffffffffffffff021916908373ffffffffffffffffffffffffffffffffffffffff160217905550600654600080600c60009054906101000a900473ffffffffffffffffffffffffffffffffffffffff1673ffffffffffffffffffffffffffffffffffffffff1673ffffffffffffffffffffffffffffffffffffffff16815260200190815260200160002081905550600c60009054906101000a900473ffffffffffffffffffffffffffffffffffffffff1673ffffffffffffffffffffffffffffffffffffffff1660007fddf252ad1be2c89b69c2b068fc378daa952ba7f163c4a11628f55a4df523b3ef6006546040518082815260200191505060405180910390a3620002ac565b828054600181600116156101000203166002900490600052602060002090601f016020900481019282601f106200024057805160ff191683800117855562000271565b8280016001018555821562000271579182015b828111156200027057825182559160200191906001019062000253565b5b50905062000280919062000284565b5090565b620002a991905b80821115620002a55760008160009055506001016200028b565b5090565b90565b611f4580620002bc6000396000f300606060405260043610610112576000357c0100000000000000000000000000000000000000000000000000000000900463ffffffff16806306fdde0314610594578063095ea7b31461062257806318160ddd1461067c5780632194f3a2146106a557806323b872dd146106fa57806326767cfe14610773578063313ce5671461078857806366188463146107b15780636f4ed7d51461080b57806370a082311461083457806374fa677d1461088157806395d89b41146108aa578063a24bcf4614610938578063a2bdedf41461096f578063a9059cbb146109d2578063b0467deb14610a2c578063c5c4744c14610a8f578063d73dd62314610ab8578063dd62ed3e14610b12578063faf47b9714610b7e575b6000600c60009054906101000a900473ffffffffffffffffffffffffffffffffffffffff1673ffffffffffffffffffffffffffffffffffffffff163373ffffffffffffffffffffffffffffffffffffffff1614806101885750600654610185600a54600754610ba790919063ffffffff16565b11155b151561019357600080fd5b600554600a0a6101ae600a5434610ba790919063ffffffff16565b101515156101bb57600080fd5b600c60009054906101000a900473ffffffffffffffffffffffffffffffffffffffff1673ffffffffffffffffffffffffffffffffffffffff163373ffffffffffffffffffffffffffffffffffffffff1614156102255734600881905550610220610be2565b610591565b61023a34600754610da890919063ffffffff16565b60078190555061024934610dc6565b905061026081600954610da890919063ffffffff16565b6009819055506102d981600080600c60009054906101000a900473ffffffffffffffffffffffffffffffffffffffff1673ffffffffffffffffffffffffffffffffffffffff1673ffffffffffffffffffffffffffffffffffffffff16815260200190815260200160002054610de990919063ffffffff16565b600080600c60009054906101000a900473ffffffffffffffffffffffffffffffffffffffff1673ffffffffffffffffffffffffffffffffffffffff1673ffffffffffffffffffffffffffffffffffffffff16815260200190815260200160002081905550610348600b33610e02565b1580156103a35750600c60009054906101000a900473ffffffffffffffffffffffffffffffffffffffff1673ffffffffffffffffffffffffffffffffffffffff163373ffffffffffffffffffffffffffffffffffffffff1614155b156104145733600b8080548091906001016103be9190611ec8565b8154811015156103ca57fe5b906000526020600020900160006101000a81548173ffffffffffffffffffffffffffffffffffffffff021916908373ffffffffffffffffffffffffffffffffffffffff1602179055505b610465816000803373ffffffffffffffffffffffffffffffffffffffff1673ffffffffffffffffffffffffffffffffffffffff16815260200190815260200160002054610da890919063ffffffff16565b6000803373ffffffffffffffffffffffffffffffffffffffff1673ffffffffffffffffffffffffffffffffffffffff168152602001908152602001600020819055503373ffffffffffffffffffffffffffffffffffffffff16600c60009054906101000a900473ffffffffffffffffffffffffffffffffffffffff1673ffffffffffffffffffffffffffffffffffffffff167fddf252ad1be2c89b69c2b068fc378daa952ba7f163c4a11628f55a4df523b3ef836040518082815260200191505060405180910390a3600c60009054906101000a900473ffffffffffffffffffffffffffffffffffffffff1673ffffffffffffffffffffffffffffffffffffffff166108fc349081150290604051600060405180830381858888f19350505050151561059057600080fd5b5b50005b341561059f57600080fd5b6105a7610ea5565b6040518080602001828103825283818151815260200191508051906020019080838360005b838110156105e75780820151818401526020810190506105cc565b50505050905090810190601f1680156106145780820380516001836020036101000a031916815260200191505b509250505060405180910390f35b341561062d57600080fd5b610662600480803573ffffffffffffffffffffffffffffffffffffffff16906020019091908035906020019091905050610f43565b604051808215151515815260200191505060405180910390f35b341561068757600080fd5b61068f611035565b6040518082815260200191505060405180910390f35b34156106b057600080fd5b6106b861103b565b604051808273ffffffffffffffffffffffffffffffffffffffff1673ffffffffffffffffffffffffffffffffffffffff16815260200191505060405180910390f35b341561070557600080fd5b610759600480803573ffffffffffffffffffffffffffffffffffffffff1690602001909190803573ffffffffffffffffffffffffffffffffffffffff16906020019091908035906020019091905050611061565b604051808215151515815260200191505060405180910390f35b341561077e57600080fd5b610786610be2565b005b341561079357600080fd5b61079b61114e565b6040518082815260200191505060405180910390f35b34156107bc57600080fd5b6107f1600480803573ffffffffffffffffffffffffffffffffffffffff16906020019091908035906020019091905050611154565b604051808215151515815260200191505060405180910390f35b341561081657600080fd5b61081e6113e5565b6040518082815260200191505060405180910390f35b341561083f57600080fd5b61086b600480803573ffffffffffffffffffffffffffffffffffffffff169060200190919050506113eb565b6040518082815260200191505060405180910390f35b341561088c57600080fd5b610894611433565b6040518082815260200191505060405180910390f35b34156108b557600080fd5b6108bd611439565b6040518080602001828103825283818151815260200191508051906020019080838360005b838110156108fd5780820151818401526020810190506108e2565b50505050905090810190601f16801561092a5780820380516001836020036101000a031916815260200191505b509250505060405180910390f35b341561094357600080fd5b6109596004808035906020019091905050610dc6565b6040518082815260200191505060405180910390f35b341561097a57600080fd5b61099060048080359060200190919050506114d7565b604051808273ffffffffffffffffffffffffffffffffffffffff1673ffffffffffffffffffffffffffffffffffffffff16815260200191505060405180910390f35b34156109dd57600080fd5b610a12600480803573ffffffffffffffffffffffffffffffffffffffff16906020019091908035906020019091905050611516565b604051808215151515815260200191505060405180910390f35b3415610a3757600080fd5b610a4d6004808035906020019091905050611601565b604051808273ffffffffffffffffffffffffffffffffffffffff1673ffffffffffffffffffffffffffffffffffffffff16815260200191505060405180910390f35b3415610a9a57600080fd5b610aa2611645565b6040518082815260200191505060405180910390f35b3415610ac357600080fd5b610af8600480803573ffffffffffffffffffffffffffffffffffffffff1690602001909190803590602001909190505061164b565b604051808215151515815260200191505060405180910390f35b3415610b1d57600080fd5b610b68600480803573ffffffffffffffffffffffffffffffffffffffff1690602001909190803573ffffffffffffffffffffffffffffffffffffffff16906020019091905050611847565b6040518082815260200191505060405180910390f35b3415610b8957600080fd5b610b916118ce565b6040518082815260200191505060405180910390f35b6000806000841415610bbc5760009150610bdb565b8284029050828482811515610bcd57fe5b04141515610bd757fe5b8091505b5092915050565b600080600091505b600b80549050821015610da4576000806000600b85815481101515610c0b57fe5b906000526020600020900160009054906101000a900473ffffffffffffffffffffffffffffffffffffffff1673ffffffffffffffffffffffffffffffffffffffff1673ffffffffffffffffffffffffffffffffffffffff16815260200190815260200160002054141515610d9757610d1a600954610d0c600854600080600b88815481101515610c9757fe5b906000526020600020900160009054906101000a900473ffffffffffffffffffffffffffffffffffffffff1673ffffffffffffffffffffffffffffffffffffffff1673ffffffffffffffffffffffffffffffffffffffff16815260200190815260200160002054610ba790919063ffffffff16565b6118d490919063ffffffff16565b9050600b82815481101515610d2b57fe5b906000526020600020900160009054906101000a900473ffffffffffffffffffffffffffffffffffffffff1673ffffffffffffffffffffffffffffffffffffffff166108fc829081150290604051600060405180830381858888f193505050501515610d9657600080fd5b5b8180600101925050610bea565b5050565b6000808284019050838110151515610dbc57fe5b8091505092915050565b600080610dde600a5484610ba790919063ffffffff16565b905080915050919050565b6000828211151515610df757fe5b818303905092915050565b600080600090505b8380549050811015610e99578273ffffffffffffffffffffffffffffffffffffffff168482815481101515610e3b57fe5b906000526020600020900160009054906101000a900473ffffffffffffffffffffffffffffffffffffffff1673ffffffffffffffffffffffffffffffffffffffff161415610e8c5760019150610e9e565b8080600101915050610e0a565b600091505b5092915050565b60038054600181600116156101000203166002900480601f016020809104026020016040519081016040528092919081815260200182805460018160011615610100020316600290048015610f3b5780601f10610f1057610100808354040283529160200191610f3b565b820191906000526020600020905b815481529060010190602001808311610f1e57829003601f168201915b505050505081565b600081600260003373ffffffffffffffffffffffffffffffffffffffff1673ffffffffffffffffffffffffffffffffffffffff16815260200190815260200160002060008573ffffffffffffffffffffffffffffffffffffffff1673ffffffffffffffffffffffffffffffffffffffff168152602001908152602001600020819055508273ffffffffffffffffffffffffffffffffffffffff163373ffffffffffffffffffffffffffffffffffffffff167f8c5be1e5ebec7d5bd14f71427d1e84f3dd0314c0f7b2291e5b200ac8c7c3b925846040518082815260200191505060405180910390a36001905092915050565b60065481565b600c60009054906101000a900473ffffffffffffffffffffffffffffffffffffffff1681565b600061106e600b84610e02565b1580156110c95750600c60009054906101000a900473ffffffffffffffffffffffffffffffffffffffff1673ffffffffffffffffffffffffffffffffffffffff168373ffffffffffffffffffffffffffffffffffffffff1614155b1561113a5782600b8080548091906001016110e49190611ec8565b8154811015156110f057fe5b906000526020600020900160006101000a81548173ffffffffffffffffffffffffffffffffffffffff021916908373ffffffffffffffffffffffffffffffffffffffff1602179055505b6111458484846118ef565b90509392505050565b60055481565b600080600260003373ffffffffffffffffffffffffffffffffffffffff1673ffffffffffffffffffffffffffffffffffffffff16815260200190815260200160002060008573ffffffffffffffffffffffffffffffffffffffff1673ffffffffffffffffffffffffffffffffffffffff16815260200190815260200160002054905080831115611265576000600260003373ffffffffffffffffffffffffffffffffffffffff1673ffffffffffffffffffffffffffffffffffffffff16815260200190815260200160002060008673ffffffffffffffffffffffffffffffffffffffff1673ffffffffffffffffffffffffffffffffffffffff168152602001908152602001600020819055506112f9565b6112788382610de990919063ffffffff16565b600260003373ffffffffffffffffffffffffffffffffffffffff1673ffffffffffffffffffffffffffffffffffffffff16815260200190815260200160002060008673ffffffffffffffffffffffffffffffffffffffff1673ffffffffffffffffffffffffffffffffffffffff168152602001908152602001600020819055505b8373ffffffffffffffffffffffffffffffffffffffff163373ffffffffffffffffffffffffffffffffffffffff167f8c5be1e5ebec7d5bd14f71427d1e84f3dd0314c0f7b2291e5b200ac8c7c3b925600260003373ffffffffffffffffffffffffffffffffffffffff1673ffffffffffffffffffffffffffffffffffffffff16815260200190815260200160002060008873ffffffffffffffffffffffffffffffffffffffff1673ffffffffffffffffffffffffffffffffffffffff168152602001908152602001600020546040518082815260200191505060405180910390a3600191505092915050565b60085481565b60008060008373ffffffffffffffffffffffffffffffffffffffff1673ffffffffffffffffffffffffffffffffffffffff168152602001908152602001600020549050919050565b600a5481565b60048054600181600116156101000203166002900480601f0160208091040260200160405190810160405280929190818152602001828054600181600116156101000203166002900480156114cf5780601f106114a4576101008083540402835291602001916114cf565b820191906000526020600020905b8154815290600101906020018083116114b257829003601f168201915b505050505081565b600b818154811015156114e657fe5b90600052602060002090016000915054906101000a900473ffffffffffffffffffffffffffffffffffffffff1681565b6000611523600b84610e02565b15801561157e5750600c60009054906101000a900473ffffffffffffffffffffffffffffffffffffffff1673ffffffffffffffffffffffffffffffffffffffff168373ffffffffffffffffffffffffffffffffffffffff1614155b156115ef5782600b8080548091906001016115999190611ec8565b8154811015156115a557fe5b906000526020600020900160006101000a81548173ffffffffffffffffffffffffffffffffffffffff021916908373ffffffffffffffffffffffffffffffffffffffff1602179055505b6115f98383611ca9565b905092915050565b6000600b8281548110151561161257fe5b906000526020600020900160009054906101000a900473ffffffffffffffffffffffffffffffffffffffff169050919050565b60075481565b60006116dc82600260003373ffffffffffffffffffffffffffffffffffffffff1673ffffffffffffffffffffffffffffffffffffffff16815260200190815260200160002060008673ffffffffffffffffffffffffffffffffffffffff1673ffffffffffffffffffffffffffffffffffffffff16815260200190815260200160002054610da890919063ffffffff16565b600260003373ffffffffffffffffffffffffffffffffffffffff1673ffffffffffffffffffffffffffffffffffffffff16815260200190815260200160002060008573ffffffffffffffffffffffffffffffffffffffff1673ffffffffffffffffffffffffffffffffffffffff168152602001908152602001600020819055508273ffffffffffffffffffffffffffffffffffffffff163373ffffffffffffffffffffffffffffffffffffffff167f8c5be1e5ebec7d5bd14f71427d1e84f3dd0314c0f7b2291e5b200ac8c7c3b925600260003373ffffffffffffffffffffffffffffffffffffffff1673ffffffffffffffffffffffffffffffffffffffff16815260200190815260200160002060008773ffffffffffffffffffffffffffffffffffffffff1673ffffffffffffffffffffffffffffffffffffffff168152602001908152602001600020546040518082815260200191505060405180910390a36001905092915050565b6000600260008473ffffffffffffffffffffffffffffffffffffffff1673ffffffffffffffffffffffffffffffffffffffff16815260200190815260200160002060008373ffffffffffffffffffffffffffffffffffffffff1673ffffffffffffffffffffffffffffffffffffffff16815260200190815260200160002054905092915050565b60095481565b60008082848115156118e257fe5b0490508091505092915050565b60008073ffffffffffffffffffffffffffffffffffffffff168373ffffffffffffffffffffffffffffffffffffffff161415151561192c57600080fd5b6000808573ffffffffffffffffffffffffffffffffffffffff1673ffffffffffffffffffffffffffffffffffffffff16815260200190815260200160002054821115151561197957600080fd5b600260008573ffffffffffffffffffffffffffffffffffffffff1673ffffffffffffffffffffffffffffffffffffffff16815260200190815260200160002060003373ffffffffffffffffffffffffffffffffffffffff1673ffffffffffffffffffffffffffffffffffffffff168152602001908152602001600020548211151515611a0457600080fd5b611a55826000808773ffffffffffffffffffffffffffffffffffffffff1673ffffffffffffffffffffffffffffffffffffffff16815260200190815260200160002054610de990919063ffffffff16565b6000808673ffffffffffffffffffffffffffffffffffffffff1673ffffffffffffffffffffffffffffffffffffffff16815260200190815260200160002081905550611ae8826000808673ffffffffffffffffffffffffffffffffffffffff1673ffffffffffffffffffffffffffffffffffffffff16815260200190815260200160002054610da890919063ffffffff16565b6000808573ffffffffffffffffffffffffffffffffffffffff1673ffffffffffffffffffffffffffffffffffffffff16815260200190815260200160002081905550611bb982600260008773ffffffffffffffffffffffffffffffffffffffff1673ffffffffffffffffffffffffffffffffffffffff16815260200190815260200160002060003373ffffffffffffffffffffffffffffffffffffffff1673ffffffffffffffffffffffffffffffffffffffff16815260200190815260200160002054610de990919063ffffffff16565b600260008673ffffffffffffffffffffffffffffffffffffffff1673ffffffffffffffffffffffffffffffffffffffff16815260200190815260200160002060003373ffffffffffffffffffffffffffffffffffffffff1673ffffffffffffffffffffffffffffffffffffffff168152602001908152602001600020819055508273ffffffffffffffffffffffffffffffffffffffff168473ffffffffffffffffffffffffffffffffffffffff167fddf252ad1be2c89b69c2b068fc378daa952ba7f163c4a11628f55a4df523b3ef846040518082815260200191505060405180910390a3600190509392505050565b60008073ffffffffffffffffffffffffffffffffffffffff168373ffffffffffffffffffffffffffffffffffffffff1614151515611ce657600080fd5b6000803373ffffffffffffffffffffffffffffffffffffffff1673ffffffffffffffffffffffffffffffffffffffff168152602001908152602001600020548211151515611d3357600080fd5b611d84826000803373ffffffffffffffffffffffffffffffffffffffff1673ffffffffffffffffffffffffffffffffffffffff16815260200190815260200160002054610de990919063ffffffff16565b6000803373ffffffffffffffffffffffffffffffffffffffff1673ffffffffffffffffffffffffffffffffffffffff16815260200190815260200160002081905550611e17826000808673ffffffffffffffffffffffffffffffffffffffff1673ffffffffffffffffffffffffffffffffffffffff16815260200190815260200160002054610da890919063ffffffff16565b6000808573ffffffffffffffffffffffffffffffffffffffff1673ffffffffffffffffffffffffffffffffffffffff168152602001908152602001600020819055508273ffffffffffffffffffffffffffffffffffffffff163373ffffffffffffffffffffffffffffffffffffffff167fddf252ad1be2c89b69c2b068fc378daa952ba7f163c4a11628f55a4df523b3ef846040518082815260200191505060405180910390a36001905092915050565b815481835581811511611eef57818360005260206000209182019101611eee9190611ef4565b5b505050565b611f1691905b80821115611f12576000816000905550600101611efa565b5090565b905600a165627a7a72305820c3abf54264f2635a6d7020e95b3154cc20f19cdd1fd0128e39b1785948b47b630029",
  "source": "pragma solidity ^0.4.15;\n\nimport 'zeppelin-solidity/contracts/token/ERC20/ERC20Basic.sol';\nimport 'zeppelin-solidity/contracts/token/ERC20/StandardToken.sol';\n\ncontract ProfitShare is StandardToken{\n    using SafeMath for uint256;\n\n    string public name = \"ProfitShare Token\";\n    string public symbol = \"PShare\";\n    uint256 public decimals = 18;\n\n    // 267M\n    uint256 public totalSupply = 267*1000000 * (uint256(10) ** decimals);\n    uint256 public totalRaised; // total ether raised (in wei)\n\n    uint256 public totalShareable; // total shareable ethers (in wei)\n    uint256 public totalActiveCoins; // total active coins (in wei)\n\n    // 1 ETH = 87245 PShare\n    uint256 public coinPerETH = 87245;\n\n    /**\n     * List of all users\n     */\n    address[] public allUsers;\n\n    /**\n     * Address which will receive raised funds \n     * and owns the total supply of tokens\n     */\n    address public fundsWallet;\n\n    //function ProfitShare(address admin) {\n    //    fundsWallet = admin;//0x8c7704eA2d934692B21419Bf2a5AC6165a45CE98;\n    //    balances[fundsWallet] = totalSupply;\n\n        // launch coins and send them to fundsWallet\n    //    Transfer(0x0, fundsWallet, totalSupply);\n    //}\n\n    function ProfitShare() {\n        fundsWallet = 0x8c7704eA2d934692B21419Bf2a5AC6165a45CE98;\n        balances[fundsWallet] = totalSupply;\n\n        // launch coins and send them to fundsWallet\n        Transfer(0x0, fundsWallet, totalSupply);\n    }\n\n    /**\n     * This function will be called when\n     * users send ETH to buy the tokens.\n     * \n     * We will calculate the Pshare amount and send to their wallets\n     */\n    function() isIcoOpen checkMin payable{\n        if(msg.sender == fundsWallet){\n            totalShareable = msg.value;\n            return shareProfits();\n        }\n        totalRaised = totalRaised.add(msg.value);\n\n        uint256 tokenAmount = calculateTokenAmount(msg.value);\n        totalActiveCoins = totalActiveCoins.add(tokenAmount);\n\n        balances[fundsWallet] = balances[fundsWallet].sub(tokenAmount);\n\n        // If its the first time that the user is paying \n        if(!contains(allUsers, msg.sender) && msg.sender != fundsWallet){\n            allUsers[allUsers.length++] = msg.sender;\n        }\n\n        balances[msg.sender] = balances[msg.sender].add(tokenAmount);\n \n        Transfer(fundsWallet, msg.sender, tokenAmount);\n\n        // immediately transfer ether to fundsWallet\n        fundsWallet.transfer(msg.value);\n    }\n\n    /**\n     * Shares profit between all coin holders\n     */    \n    function shareProfits(){\n        for (uint i = 0; i < allUsers.length; i++) {\n            if(balances[allUsers[i]] != 0){\n                uint256 shareMount = balances[allUsers[i]].mul(totalShareable).div(totalActiveCoins);\n                allUsers[i].transfer(shareMount);\n            }\n        }\n    }\n\n    /**\n     * Returns allUsers elements\n     */\n    function getUser(uint256 index) constant returns(address){\n        return allUsers[index];\n    }\n\n    /**\n     * Calculates the total PShare amount\n     */\n    function calculateTokenAmount(uint256 weiAmount) constant returns(uint256) {\n        uint256 tokenAmount = weiAmount.mul(coinPerETH);\n        return tokenAmount;\n    }\n\n    /**\n     * Transfers tokens to a new wallet\n     * \n     * @param   _to -- destination address\n     * @param   _value -- wie amount\n     */\n    function transfer(address _to, uint _value) returns (bool) {\n        if(!contains(allUsers, _to) && _to != fundsWallet){\n            allUsers[allUsers.length++] = _to;\n        }\n        return super.transfer(_to, _value);\n    }\n\n    /**\n     * Transfers tokens from one wallet to an another wallet\n     * \n     * @param   _from -- source address\n     * @param   _to -- destination address\n     * @param   _value -- wie amount\n     */\n    function transferFrom(address _from, address _to, uint _value) returns (bool) {\n        if(!contains(allUsers, _to) && _to != fundsWallet){\n            allUsers[allUsers.length++] = _to;\n        }\n        return super.transferFrom(_from, _to, _value);\n    }\n\n    /**\n     * Throws an exception and reject the transaction when we don't have enough \n     * tokens.\n     * When all tokens are sold out, the contract can't accept new incoming ethers\n     * and need to reject transactions\n     */\n    modifier isIcoOpen() {\n        require(msg.sender == fundsWallet ||\n            totalRaised.mul(coinPerETH) <= totalSupply);\n        _;\n    }\n\n    /**\n     * Investors can buy at least 1 Pshare.\n     * Smaller amounts will be rejected.\n     */\n    modifier checkMin(){\n        require(msg.value.mul(coinPerETH) >= (uint256(10) ** decimals));\n        _;\n    }\n\n    /**\n     * Checks to make sure that the sender is admin.\n     * Will throw an exception and reject the transaction if the sender is not admin.\n     * We need this function for some restricted functions.\n     */\n    modifier isOwner(){\n        require(msg.sender == fundsWallet);\n        _;\n    }\n\n\n    /**\n     * Check if an address is in the list or not\n     * Returns true if exists else false\n     */\n    function contains(address[] storage list, address addr) \n            internal constant returns (bool) {\n        for (uint i = 0; i < list.length; i++) {\n            if (list[i] == addr) {\n                return true;\n            }\n        }\n        return false;\n    }\n}\n",
  "sourcePath": "/home/projects/projects/solidity_profit_share/contracts/ProfitShare.sol",
  "compiler": {
    "name": "solc",
    "version": "0.4.19+commit.c4cbbb05.Emscripten.clang"
  },
  "schemaVersion": "1.0.1",
  "updatedAt": "2018-03-03T03:32:46.373Z"
}