{
  "contractName": "ProfitShare",
  "abi": [
    {
      "constant": true,
      "inputs": [],
      "name": "name",
      "outputs": [
        {
          "name": "",
          "type": "string"
        }
      ],
      "payable": false,
      "stateMutability": "view",
      "type": "function"
    },
    {
      "constant": false,
      "inputs": [
        {
          "name": "_spender",
          "type": "address"
        },
        {
          "name": "_value",
          "type": "uint256"
        }
      ],
      "name": "approve",
      "outputs": [
        {
          "name": "",
          "type": "bool"
        }
      ],
      "payable": false,
      "stateMutability": "nonpayable",
      "type": "function"
    },
    {
      "constant": true,
      "inputs": [],
      "name": "totalSupply",
      "outputs": [
        {
          "name": "",
          "type": "uint256"
        }
      ],
      "payable": false,
      "stateMutability": "view",
      "type": "function"
    },
    {
      "constant": true,
      "inputs": [],
      "name": "fundsWallet",
      "outputs": [
        {
          "name": "",
          "type": "address"
        }
      ],
      "payable": false,
      "stateMutability": "view",
      "type": "function"
    },
    {
      "constant": true,
      "inputs": [],
      "name": "decimals",
      "outputs": [
        {
          "name": "",
          "type": "uint256"
        }
      ],
      "payable": false,
      "stateMutability": "view",
      "type": "function"
    },
    {
      "constant": false,
      "inputs": [
        {
          "name": "_spender",
          "type": "address"
        },
        {
          "name": "_subtractedValue",
          "type": "uint256"
        }
      ],
      "name": "decreaseApproval",
      "outputs": [
        {
          "name": "",
          "type": "bool"
        }
      ],
      "payable": false,
      "stateMutability": "nonpayable",
      "type": "function"
    },
    {
      "constant": true,
      "inputs": [],
      "name": "totalShareable",
      "outputs": [
        {
          "name": "",
          "type": "uint256"
        }
      ],
      "payable": false,
      "stateMutability": "view",
      "type": "function"
    },
    {
      "constant": true,
      "inputs": [
        {
          "name": "_owner",
          "type": "address"
        }
      ],
      "name": "balanceOf",
      "outputs": [
        {
          "name": "balance",
          "type": "uint256"
        }
      ],
      "payable": false,
      "stateMutability": "view",
      "type": "function"
    },
    {
      "constant": true,
      "inputs": [],
      "name": "coinPerETH",
      "outputs": [
        {
          "name": "",
          "type": "uint256"
        }
      ],
      "payable": false,
      "stateMutability": "view",
      "type": "function"
    },
    {
      "constant": true,
      "inputs": [],
      "name": "symbol",
      "outputs": [
        {
          "name": "",
          "type": "string"
        }
      ],
      "payable": false,
      "stateMutability": "view",
      "type": "function"
    },
    {
      "constant": true,
      "inputs": [
        {
          "name": "",
          "type": "uint256"
        }
      ],
      "name": "allUsers",
      "outputs": [
        {
          "name": "",
          "type": "address"
        }
      ],
      "payable": false,
      "stateMutability": "view",
      "type": "function"
    },
    {
      "constant": true,
      "inputs": [],
      "name": "totalRaised",
      "outputs": [
        {
          "name": "",
          "type": "uint256"
        }
      ],
      "payable": false,
      "stateMutability": "view",
      "type": "function"
    },
    {
      "constant": false,
      "inputs": [
        {
          "name": "_spender",
          "type": "address"
        },
        {
          "name": "_addedValue",
          "type": "uint256"
        }
      ],
      "name": "increaseApproval",
      "outputs": [
        {
          "name": "",
          "type": "bool"
        }
      ],
      "payable": false,
      "stateMutability": "nonpayable",
      "type": "function"
    },
    {
      "constant": true,
      "inputs": [
        {
          "name": "_owner",
          "type": "address"
        },
        {
          "name": "_spender",
          "type": "address"
        }
      ],
      "name": "allowance",
      "outputs": [
        {
          "name": "",
          "type": "uint256"
        }
      ],
      "payable": false,
      "stateMutability": "view",
      "type": "function"
    },
    {
      "constant": true,
      "inputs": [],
      "name": "totalActiveCoins",
      "outputs": [
        {
          "name": "",
          "type": "uint256"
        }
      ],
      "payable": false,
      "stateMutability": "view",
      "type": "function"
    },
    {
      "inputs": [],
      "payable": false,
      "stateMutability": "nonpayable",
      "type": "constructor"
    },
    {
      "payable": true,
      "stateMutability": "payable",
      "type": "fallback"
    },
    {
      "anonymous": false,
      "inputs": [
        {
          "indexed": true,
          "name": "owner",
          "type": "address"
        },
        {
          "indexed": true,
          "name": "spender",
          "type": "address"
        },
        {
          "indexed": false,
          "name": "value",
          "type": "uint256"
        }
      ],
      "name": "Approval",
      "type": "event"
    },
    {
      "anonymous": false,
      "inputs": [
        {
          "indexed": true,
          "name": "from",
          "type": "address"
        },
        {
          "indexed": true,
          "name": "to",
          "type": "address"
        },
        {
          "indexed": false,
          "name": "value",
          "type": "uint256"
        }
      ],
      "name": "Transfer",
      "type": "event"
    },
    {
      "constant": false,
      "inputs": [],
      "name": "shareProfits",
      "outputs": [],
      "payable": false,
      "stateMutability": "nonpayable",
      "type": "function"
    },
    {
      "constant": true,
      "inputs": [
        {
          "name": "index",
          "type": "uint256"
        }
      ],
      "name": "getUser",
      "outputs": [
        {
          "name": "",
          "type": "address"
        }
      ],
      "payable": false,
      "stateMutability": "view",
      "type": "function"
    },
    {
      "constant": true,
      "inputs": [
        {
          "name": "weiAmount",
          "type": "uint256"
        }
      ],
      "name": "calculateTokenAmount",
      "outputs": [
        {
          "name": "",
          "type": "uint256"
        }
      ],
      "payable": false,
      "stateMutability": "view",
      "type": "function"
    },
    {
      "constant": false,
      "inputs": [
        {
          "name": "_to",
          "type": "address"
        },
        {
          "name": "_value",
          "type": "uint256"
        }
      ],
      "name": "transfer",
      "outputs": [
        {
          "name": "",
          "type": "bool"
        }
      ],
      "payable": false,
      "stateMutability": "nonpayable",
      "type": "function"
    },
    {
      "constant": false,
      "inputs": [
        {
          "name": "_from",
          "type": "address"
        },
        {
          "name": "_to",
          "type": "address"
        },
        {
          "name": "_value",
          "type": "uint256"
        }
      ],
      "name": "transferFrom",
      "outputs": [
        {
          "name": "",
          "type": "bool"
        }
      ],
      "payable": false,
      "stateMutability": "nonpayable",
      "type": "function"
    },
    {
      "constant": false,
      "inputs": [
        {
          "name": "_address",
          "type": "address"
        }
      ],
      "name": "adminAddWhiteList",
      "outputs": [
        {
          "name": "",
          "type": "bool"
        }
      ],
      "payable": false,
      "stateMutability": "nonpayable",
      "type": "function"
    },
    {
      "constant": false,
      "inputs": [
        {
          "name": "_address",
          "type": "address"
        }
      ],
      "name": "adminRemoveWhiteList",
      "outputs": [
        {
          "name": "",
          "type": "bool"
        }
      ],
      "payable": false,
      "stateMutability": "nonpayable",
      "type": "function"
    }
  ],
  "bytecode": "0x60606040526040805190810160405280601181526020017f50726f666974536861726520546f6b656e0000000000000000000000000000008152506003908051906020019062000051929190620001fd565b506040805190810160405280600681526020017f5053686172650000000000000000000000000000000000000000000000000000815250600490805190602001906200009f929190620001fd565b506012600555600554600a0a630fea18c002600655620154cd600a553415620000c757600080fd5b738c7704ea2d934692b21419bf2a5ac6165a45ce98600d60006101000a81548173ffffffffffffffffffffffffffffffffffffffff021916908373ffffffffffffffffffffffffffffffffffffffff160217905550600654600080600d60009054906101000a900473ffffffffffffffffffffffffffffffffffffffff1673ffffffffffffffffffffffffffffffffffffffff1673ffffffffffffffffffffffffffffffffffffffff16815260200190815260200160002081905550600d60009054906101000a900473ffffffffffffffffffffffffffffffffffffffff1673ffffffffffffffffffffffffffffffffffffffff1660007fddf252ad1be2c89b69c2b068fc378daa952ba7f163c4a11628f55a4df523b3ef6006546040518082815260200191505060405180910390a3620002ac565b828054600181600116156101000203166002900490600052602060002090601f016020900481019282601f106200024057805160ff191683800117855562000271565b8280016001018555821562000271579182015b828111156200027057825182559160200191906001019062000253565b5b50905062000280919062000284565b5090565b620002a991905b80821115620002a55760008160009055506001016200028b565b5090565b90565b61222b80620002bc6000396000f300606060405260043610610128576000357c0100000000000000000000000000000000000000000000000000000000900463ffffffff1680630191f99c1461065a57806306fdde03146106ab578063095ea7b31461073957806313b69b191461079357806318160ddd146107e45780632194f3a21461080d57806323b872dd1461086257806326767cfe146108db578063313ce567146108f057806366188463146109195780636f4ed7d51461097357806370a082311461099c57806374fa677d146109e957806395d89b4114610a12578063a24bcf4614610aa0578063a2bdedf414610ad7578063a9059cbb14610b3a578063b0467deb14610b94578063c5c4744c14610bf7578063d73dd62314610c20578063dd62ed3e14610c7a578063faf47b9714610ce6575b6000600d60009054906101000a900473ffffffffffffffffffffffffffffffffffffffff1673ffffffffffffffffffffffffffffffffffffffff163373ffffffffffffffffffffffffffffffffffffffff16148061019e575060065461019b600a54600754610d0f90919063ffffffff16565b11155b15156101a957600080fd5b600554600a0a6101c4600a5434610d0f90919063ffffffff16565b101515156101d157600080fd5b600c60003373ffffffffffffffffffffffffffffffffffffffff1673ffffffffffffffffffffffffffffffffffffffff16815260200190815260200160002060009054906101000a900460ff16806102765750600d60009054906101000a900473ffffffffffffffffffffffffffffffffffffffff1673ffffffffffffffffffffffffffffffffffffffff163373ffffffffffffffffffffffffffffffffffffffff16145b151561028157600080fd5b600d60009054906101000a900473ffffffffffffffffffffffffffffffffffffffff1673ffffffffffffffffffffffffffffffffffffffff163373ffffffffffffffffffffffffffffffffffffffff1614156102eb57346008819055506102e6610d4a565b610657565b61030034600754610f1090919063ffffffff16565b60078190555061030f34610f2e565b905061032681600954610f1090919063ffffffff16565b60098190555061039f81600080600d60009054906101000a900473ffffffffffffffffffffffffffffffffffffffff1673ffffffffffffffffffffffffffffffffffffffff1673ffffffffffffffffffffffffffffffffffffffff16815260200190815260200160002054610f5190919063ffffffff16565b600080600d60009054906101000a900473ffffffffffffffffffffffffffffffffffffffff1673ffffffffffffffffffffffffffffffffffffffff1673ffffffffffffffffffffffffffffffffffffffff1681526020019081526020016000208190555061040e600b33610f6a565b1580156104695750600d60009054906101000a900473ffffffffffffffffffffffffffffffffffffffff1673ffffffffffffffffffffffffffffffffffffffff163373ffffffffffffffffffffffffffffffffffffffff1614155b156104da5733600b80805480919060010161048491906121ae565b81548110151561049057fe5b906000526020600020900160006101000a81548173ffffffffffffffffffffffffffffffffffffffff021916908373ffffffffffffffffffffffffffffffffffffffff1602179055505b61052b816000803373ffffffffffffffffffffffffffffffffffffffff1673ffffffffffffffffffffffffffffffffffffffff16815260200190815260200160002054610f1090919063ffffffff16565b6000803373ffffffffffffffffffffffffffffffffffffffff1673ffffffffffffffffffffffffffffffffffffffff168152602001908152602001600020819055503373ffffffffffffffffffffffffffffffffffffffff16600d60009054906101000a900473ffffffffffffffffffffffffffffffffffffffff1673ffffffffffffffffffffffffffffffffffffffff167fddf252ad1be2c89b69c2b068fc378daa952ba7f163c4a11628f55a4df523b3ef836040518082815260200191505060405180910390a3600d60009054906101000a900473ffffffffffffffffffffffffffffffffffffffff1673ffffffffffffffffffffffffffffffffffffffff166108fc349081150290604051600060405180830381858888f19350505050151561065657600080fd5b5b50005b341561066557600080fd5b610691600480803573ffffffffffffffffffffffffffffffffffffffff1690602001909190505061100d565b604051808215151515815260200191505060405180910390f35b34156106b657600080fd5b6106be6110cc565b6040518080602001828103825283818151815260200191508051906020019080838360005b838110156106fe5780820151818401526020810190506106e3565b50505050905090810190601f16801561072b5780820380516001836020036101000a031916815260200191505b509250505060405180910390f35b341561074457600080fd5b610779600480803573ffffffffffffffffffffffffffffffffffffffff1690602001909190803590602001909190505061116a565b604051808215151515815260200191505060405180910390f35b341561079e57600080fd5b6107ca600480803573ffffffffffffffffffffffffffffffffffffffff1690602001909190505061125c565b604051808215151515815260200191505060405180910390f35b34156107ef57600080fd5b6107f761131b565b6040518082815260200191505060405180910390f35b341561081857600080fd5b610820611321565b604051808273ffffffffffffffffffffffffffffffffffffffff1673ffffffffffffffffffffffffffffffffffffffff16815260200191505060405180910390f35b341561086d57600080fd5b6108c1600480803573ffffffffffffffffffffffffffffffffffffffff1690602001909190803573ffffffffffffffffffffffffffffffffffffffff16906020019091908035906020019091905050611347565b604051808215151515815260200191505060405180910390f35b34156108e657600080fd5b6108ee610d4a565b005b34156108fb57600080fd5b610903611434565b6040518082815260200191505060405180910390f35b341561092457600080fd5b610959600480803573ffffffffffffffffffffffffffffffffffffffff1690602001909190803590602001909190505061143a565b604051808215151515815260200191505060405180910390f35b341561097e57600080fd5b6109866116cb565b6040518082815260200191505060405180910390f35b34156109a757600080fd5b6109d3600480803573ffffffffffffffffffffffffffffffffffffffff169060200190919050506116d1565b6040518082815260200191505060405180910390f35b34156109f457600080fd5b6109fc611719565b6040518082815260200191505060405180910390f35b3415610a1d57600080fd5b610a2561171f565b6040518080602001828103825283818151815260200191508051906020019080838360005b83811015610a65578082015181840152602081019050610a4a565b50505050905090810190601f168015610a925780820380516001836020036101000a031916815260200191505b509250505060405180910390f35b3415610aab57600080fd5b610ac16004808035906020019091905050610f2e565b6040518082815260200191505060405180910390f35b3415610ae257600080fd5b610af860048080359060200190919050506117bd565b604051808273ffffffffffffffffffffffffffffffffffffffff1673ffffffffffffffffffffffffffffffffffffffff16815260200191505060405180910390f35b3415610b4557600080fd5b610b7a600480803573ffffffffffffffffffffffffffffffffffffffff169060200190919080359060200190919050506117fc565b604051808215151515815260200191505060405180910390f35b3415610b9f57600080fd5b610bb560048080359060200190919050506118e7565b604051808273ffffffffffffffffffffffffffffffffffffffff1673ffffffffffffffffffffffffffffffffffffffff16815260200191505060405180910390f35b3415610c0257600080fd5b610c0a61192b565b6040518082815260200191505060405180910390f35b3415610c2b57600080fd5b610c60600480803573ffffffffffffffffffffffffffffffffffffffff16906020019091908035906020019091905050611931565b604051808215151515815260200191505060405180910390f35b3415610c8557600080fd5b610cd0600480803573ffffffffffffffffffffffffffffffffffffffff1690602001909190803573ffffffffffffffffffffffffffffffffffffffff16906020019091905050611b2d565b6040518082815260200191505060405180910390f35b3415610cf157600080fd5b610cf9611bb4565b6040518082815260200191505060405180910390f35b6000806000841415610d245760009150610d43565b8284029050828482811515610d3557fe5b04141515610d3f57fe5b8091505b5092915050565b600080600091505b600b80549050821015610f0c576000806000600b85815481101515610d7357fe5b906000526020600020900160009054906101000a900473ffffffffffffffffffffffffffffffffffffffff1673ffffffffffffffffffffffffffffffffffffffff1673ffffffffffffffffffffffffffffffffffffffff16815260200190815260200160002054141515610eff57610e82600954610e74600854600080600b88815481101515610dff57fe5b906000526020600020900160009054906101000a900473ffffffffffffffffffffffffffffffffffffffff1673ffffffffffffffffffffffffffffffffffffffff1673ffffffffffffffffffffffffffffffffffffffff16815260200190815260200160002054610d0f90919063ffffffff16565b611bba90919063ffffffff16565b9050600b82815481101515610e9357fe5b906000526020600020900160009054906101000a900473ffffffffffffffffffffffffffffffffffffffff1673ffffffffffffffffffffffffffffffffffffffff166108fc829081150290604051600060405180830381858888f193505050501515610efe57600080fd5b5b8180600101925050610d52565b5050565b6000808284019050838110151515610f2457fe5b8091505092915050565b600080610f46600a5484610d0f90919063ffffffff16565b905080915050919050565b6000828211151515610f5f57fe5b818303905092915050565b600080600090505b8380549050811015611001578273ffffffffffffffffffffffffffffffffffffffff168482815481101515610fa357fe5b906000526020600020900160009054906101000a900473ffffffffffffffffffffffffffffffffffffffff1673ffffffffffffffffffffffffffffffffffffffff161415610ff45760019150611006565b8080600101915050610f72565b600091505b5092915050565b6000600d60009054906101000a900473ffffffffffffffffffffffffffffffffffffffff1673ffffffffffffffffffffffffffffffffffffffff163373ffffffffffffffffffffffffffffffffffffffff1614151561106b57600080fd5b6000600c60008473ffffffffffffffffffffffffffffffffffffffff1673ffffffffffffffffffffffffffffffffffffffff16815260200190815260200160002060006101000a81548160ff02191690831515021790555060019050919050565b60038054600181600116156101000203166002900480601f0160208091040260200160405190810160405280929190818152602001828054600181600116156101000203166002900480156111625780601f1061113757610100808354040283529160200191611162565b820191906000526020600020905b81548152906001019060200180831161114557829003601f168201915b505050505081565b600081600260003373ffffffffffffffffffffffffffffffffffffffff1673ffffffffffffffffffffffffffffffffffffffff16815260200190815260200160002060008573ffffffffffffffffffffffffffffffffffffffff1673ffffffffffffffffffffffffffffffffffffffff168152602001908152602001600020819055508273ffffffffffffffffffffffffffffffffffffffff163373ffffffffffffffffffffffffffffffffffffffff167f8c5be1e5ebec7d5bd14f71427d1e84f3dd0314c0f7b2291e5b200ac8c7c3b925846040518082815260200191505060405180910390a36001905092915050565b6000600d60009054906101000a900473ffffffffffffffffffffffffffffffffffffffff1673ffffffffffffffffffffffffffffffffffffffff163373ffffffffffffffffffffffffffffffffffffffff161415156112ba57600080fd5b6001600c60008473ffffffffffffffffffffffffffffffffffffffff1673ffffffffffffffffffffffffffffffffffffffff16815260200190815260200160002060006101000a81548160ff02191690831515021790555060019050919050565b60065481565b600d60009054906101000a900473ffffffffffffffffffffffffffffffffffffffff1681565b6000611354600b84610f6a565b1580156113af5750600d60009054906101000a900473ffffffffffffffffffffffffffffffffffffffff1673ffffffffffffffffffffffffffffffffffffffff168373ffffffffffffffffffffffffffffffffffffffff1614155b156114205782600b8080548091906001016113ca91906121ae565b8154811015156113d657fe5b906000526020600020900160006101000a81548173ffffffffffffffffffffffffffffffffffffffff021916908373ffffffffffffffffffffffffffffffffffffffff1602179055505b61142b848484611bd5565b90509392505050565b60055481565b600080600260003373ffffffffffffffffffffffffffffffffffffffff1673ffffffffffffffffffffffffffffffffffffffff16815260200190815260200160002060008573ffffffffffffffffffffffffffffffffffffffff1673ffffffffffffffffffffffffffffffffffffffff1681526020019081526020016000205490508083111561154b576000600260003373ffffffffffffffffffffffffffffffffffffffff1673ffffffffffffffffffffffffffffffffffffffff16815260200190815260200160002060008673ffffffffffffffffffffffffffffffffffffffff1673ffffffffffffffffffffffffffffffffffffffff168152602001908152602001600020819055506115df565b61155e8382610f5190919063ffffffff16565b600260003373ffffffffffffffffffffffffffffffffffffffff1673ffffffffffffffffffffffffffffffffffffffff16815260200190815260200160002060008673ffffffffffffffffffffffffffffffffffffffff1673ffffffffffffffffffffffffffffffffffffffff168152602001908152602001600020819055505b8373ffffffffffffffffffffffffffffffffffffffff163373ffffffffffffffffffffffffffffffffffffffff167f8c5be1e5ebec7d5bd14f71427d1e84f3dd0314c0f7b2291e5b200ac8c7c3b925600260003373ffffffffffffffffffffffffffffffffffffffff1673ffffffffffffffffffffffffffffffffffffffff16815260200190815260200160002060008873ffffffffffffffffffffffffffffffffffffffff1673ffffffffffffffffffffffffffffffffffffffff168152602001908152602001600020546040518082815260200191505060405180910390a3600191505092915050565b60085481565b60008060008373ffffffffffffffffffffffffffffffffffffffff1673ffffffffffffffffffffffffffffffffffffffff168152602001908152602001600020549050919050565b600a5481565b60048054600181600116156101000203166002900480601f0160208091040260200160405190810160405280929190818152602001828054600181600116156101000203166002900480156117b55780601f1061178a576101008083540402835291602001916117b5565b820191906000526020600020905b81548152906001019060200180831161179857829003601f168201915b505050505081565b600b818154811015156117cc57fe5b90600052602060002090016000915054906101000a900473ffffffffffffffffffffffffffffffffffffffff1681565b6000611809600b84610f6a565b1580156118645750600d60009054906101000a900473ffffffffffffffffffffffffffffffffffffffff1673ffffffffffffffffffffffffffffffffffffffff168373ffffffffffffffffffffffffffffffffffffffff1614155b156118d55782600b80805480919060010161187f91906121ae565b81548110151561188b57fe5b906000526020600020900160006101000a81548173ffffffffffffffffffffffffffffffffffffffff021916908373ffffffffffffffffffffffffffffffffffffffff1602179055505b6118df8383611f8f565b905092915050565b6000600b828154811015156118f857fe5b906000526020600020900160009054906101000a900473ffffffffffffffffffffffffffffffffffffffff169050919050565b60075481565b60006119c282600260003373ffffffffffffffffffffffffffffffffffffffff1673ffffffffffffffffffffffffffffffffffffffff16815260200190815260200160002060008673ffffffffffffffffffffffffffffffffffffffff1673ffffffffffffffffffffffffffffffffffffffff16815260200190815260200160002054610f1090919063ffffffff16565b600260003373ffffffffffffffffffffffffffffffffffffffff1673ffffffffffffffffffffffffffffffffffffffff16815260200190815260200160002060008573ffffffffffffffffffffffffffffffffffffffff1673ffffffffffffffffffffffffffffffffffffffff168152602001908152602001600020819055508273ffffffffffffffffffffffffffffffffffffffff163373ffffffffffffffffffffffffffffffffffffffff167f8c5be1e5ebec7d5bd14f71427d1e84f3dd0314c0f7b2291e5b200ac8c7c3b925600260003373ffffffffffffffffffffffffffffffffffffffff1673ffffffffffffffffffffffffffffffffffffffff16815260200190815260200160002060008773ffffffffffffffffffffffffffffffffffffffff1673ffffffffffffffffffffffffffffffffffffffff168152602001908152602001600020546040518082815260200191505060405180910390a36001905092915050565b6000600260008473ffffffffffffffffffffffffffffffffffffffff1673ffffffffffffffffffffffffffffffffffffffff16815260200190815260200160002060008373ffffffffffffffffffffffffffffffffffffffff1673ffffffffffffffffffffffffffffffffffffffff16815260200190815260200160002054905092915050565b60095481565b6000808284811515611bc857fe5b0490508091505092915050565b60008073ffffffffffffffffffffffffffffffffffffffff168373ffffffffffffffffffffffffffffffffffffffff1614151515611c1257600080fd5b6000808573ffffffffffffffffffffffffffffffffffffffff1673ffffffffffffffffffffffffffffffffffffffff168152602001908152602001600020548211151515611c5f57600080fd5b600260008573ffffffffffffffffffffffffffffffffffffffff1673ffffffffffffffffffffffffffffffffffffffff16815260200190815260200160002060003373ffffffffffffffffffffffffffffffffffffffff1673ffffffffffffffffffffffffffffffffffffffff168152602001908152602001600020548211151515611cea57600080fd5b611d3b826000808773ffffffffffffffffffffffffffffffffffffffff1673ffffffffffffffffffffffffffffffffffffffff16815260200190815260200160002054610f5190919063ffffffff16565b6000808673ffffffffffffffffffffffffffffffffffffffff1673ffffffffffffffffffffffffffffffffffffffff16815260200190815260200160002081905550611dce826000808673ffffffffffffffffffffffffffffffffffffffff1673ffffffffffffffffffffffffffffffffffffffff16815260200190815260200160002054610f1090919063ffffffff16565b6000808573ffffffffffffffffffffffffffffffffffffffff1673ffffffffffffffffffffffffffffffffffffffff16815260200190815260200160002081905550611e9f82600260008773ffffffffffffffffffffffffffffffffffffffff1673ffffffffffffffffffffffffffffffffffffffff16815260200190815260200160002060003373ffffffffffffffffffffffffffffffffffffffff1673ffffffffffffffffffffffffffffffffffffffff16815260200190815260200160002054610f5190919063ffffffff16565b600260008673ffffffffffffffffffffffffffffffffffffffff1673ffffffffffffffffffffffffffffffffffffffff16815260200190815260200160002060003373ffffffffffffffffffffffffffffffffffffffff1673ffffffffffffffffffffffffffffffffffffffff168152602001908152602001600020819055508273ffffffffffffffffffffffffffffffffffffffff168473ffffffffffffffffffffffffffffffffffffffff167fddf252ad1be2c89b69c2b068fc378daa952ba7f163c4a11628f55a4df523b3ef846040518082815260200191505060405180910390a3600190509392505050565b60008073ffffffffffffffffffffffffffffffffffffffff168373ffffffffffffffffffffffffffffffffffffffff1614151515611fcc57600080fd5b6000803373ffffffffffffffffffffffffffffffffffffffff1673ffffffffffffffffffffffffffffffffffffffff16815260200190815260200160002054821115151561201957600080fd5b61206a826000803373ffffffffffffffffffffffffffffffffffffffff1673ffffffffffffffffffffffffffffffffffffffff16815260200190815260200160002054610f5190919063ffffffff16565b6000803373ffffffffffffffffffffffffffffffffffffffff1673ffffffffffffffffffffffffffffffffffffffff168152602001908152602001600020819055506120fd826000808673ffffffffffffffffffffffffffffffffffffffff1673ffffffffffffffffffffffffffffffffffffffff16815260200190815260200160002054610f1090919063ffffffff16565b6000808573ffffffffffffffffffffffffffffffffffffffff1673ffffffffffffffffffffffffffffffffffffffff168152602001908152602001600020819055508273ffffffffffffffffffffffffffffffffffffffff163373ffffffffffffffffffffffffffffffffffffffff167fddf252ad1be2c89b69c2b068fc378daa952ba7f163c4a11628f55a4df523b3ef846040518082815260200191505060405180910390a36001905092915050565b8154818355818115116121d5578183600052602060002091820191016121d491906121da565b5b505050565b6121fc91905b808211156121f85760008160009055506001016121e0565b5090565b905600a165627a7a72305820f765b367b897620b34acd7bac99599112a11ab7dd953b6fa4249550ca29e01090029",
  "source": "pragma solidity ^0.4.15;\n\nimport 'zeppelin-solidity/contracts/token/ERC20/ERC20Basic.sol';\nimport 'zeppelin-solidity/contracts/token/ERC20/StandardToken.sol';\n\ncontract ProfitShare is StandardToken{\n    using SafeMath for uint256;\n\n    string public name = \"ProfitShare Token\";\n    string public symbol = \"PShare\";\n    uint256 public decimals = 18;\n\n    // 267M\n    uint256 public totalSupply = 267*1000000 * (uint256(10) ** decimals);\n    uint256 public totalRaised; // total ether raised (in wei)\n\n    uint256 public totalShareable; // total shareable ethers (in wei)\n    uint256 public totalActiveCoins; // total active coins (in wei)\n\n    // 1 ETH = 87245 PShare\n    uint256 public coinPerETH = 87245;\n\n    /**\n     * List of all users\n     */\n    address[] public allUsers;\n\n    // whitelisted users\n    mapping(address => bool) whiteList;\n\n    /**\n     * Address which will receive raised funds \n     * and owns the total supply of tokens\n     */\n    address public fundsWallet;\n\n    //function ProfitShare(address admin) {\n    //    fundsWallet = admin;//0x8c7704eA2d934692B21419Bf2a5AC6165a45CE98;\n    //    balances[fundsWallet] = totalSupply;\n\n        // launch coins and send them to fundsWallet\n    //    Transfer(0x0, fundsWallet, totalSupply);\n    //}\n\n    function ProfitShare() {\n        fundsWallet = 0x8c7704eA2d934692B21419Bf2a5AC6165a45CE98;\n        balances[fundsWallet] = totalSupply;\n\n        // launch coins and send them to fundsWallet\n        Transfer(0x0, fundsWallet, totalSupply);\n    }\n\n    /**\n     * This function will be called when\n     * users send ETH to buy the tokens.\n     * \n     * We will calculate the Pshare amount and send to their wallets\n     */\n    function() isIcoOpen checkMin isInWhitelist payable{\n        if(msg.sender == fundsWallet){\n            totalShareable = msg.value;\n            return shareProfits();\n        }\n        totalRaised = totalRaised.add(msg.value);\n\n        uint256 tokenAmount = calculateTokenAmount(msg.value);\n        totalActiveCoins = totalActiveCoins.add(tokenAmount);\n\n        balances[fundsWallet] = balances[fundsWallet].sub(tokenAmount);\n\n        // If its the first time that the user is paying \n        if(!contains(allUsers, msg.sender) && msg.sender != fundsWallet){\n            allUsers[allUsers.length++] = msg.sender;\n        }\n\n        balances[msg.sender] = balances[msg.sender].add(tokenAmount);\n \n        Transfer(fundsWallet, msg.sender, tokenAmount);\n\n        // immediately transfer ether to fundsWallet\n        fundsWallet.transfer(msg.value);\n    }\n\n    /**\n     * Shares profit between all coin holders\n     */    \n    function shareProfits(){\n        for (uint i = 0; i < allUsers.length; i++) {\n            if(balances[allUsers[i]] != 0){\n                uint256 shareMount = balances[allUsers[i]].mul(totalShareable).div(totalActiveCoins);\n                allUsers[i].transfer(shareMount);\n            }\n        }\n    }\n\n    /**\n     * Returns allUsers elements\n     */\n    function getUser(uint256 index) constant returns(address){\n        return allUsers[index];\n    }\n\n    /**\n     * Calculates the total PShare amount\n     */\n    function calculateTokenAmount(uint256 weiAmount) constant returns(uint256) {\n        uint256 tokenAmount = weiAmount.mul(coinPerETH);\n        return tokenAmount;\n    }\n\n    /**\n     * Transfers tokens to a new wallet\n     * \n     * @param   _to -- destination address\n     * @param   _value -- wie amount\n     */\n    function transfer(address _to, uint _value) returns (bool) {\n        if(!contains(allUsers, _to) && _to != fundsWallet){\n            allUsers[allUsers.length++] = _to;\n        }\n        return super.transfer(_to, _value);\n    }\n\n    /**\n     * Transfers tokens from one wallet to an another wallet\n     * \n     * @param   _from -- source address\n     * @param   _to -- destination address\n     * @param   _value -- wie amount\n     */\n    function transferFrom(address _from, address _to, uint _value) returns (bool) {\n        if(!contains(allUsers, _to) && _to != fundsWallet){\n            allUsers[allUsers.length++] = _to;\n        }\n        return super.transferFrom(_from, _to, _value);\n    }\n\n    /**\n     * Throws an exception and reject the transaction when we don't have enough \n     * tokens.\n     * When all tokens are sold out, the contract can't accept new incoming ethers\n     * and need to reject transactions\n     */\n    modifier isIcoOpen() {\n        require(msg.sender == fundsWallet ||\n            totalRaised.mul(coinPerETH) <= totalSupply);\n        _;\n    }\n\n    /**\n     * Investors can buy at least 1 Pshare.\n     * Smaller amounts will be rejected.\n     */\n    modifier checkMin(){\n        require(msg.value.mul(coinPerETH) >= (uint256(10) ** decimals));\n        _;\n    }\n\n    /**\n     * Checks to make sure that the sender is admin.\n     * Will throw an exception and reject the transaction if the sender is not admin.\n     * We need this function for some restricted functions.\n     */\n    modifier isOwner(){\n        require(msg.sender == fundsWallet);\n        _;\n    }\n\n    /**\n     * Checks to make sure that the sender is in WhiteList\n     */\n    modifier isInWhitelist(){\n        require(whiteList[msg.sender] || msg.sender == fundsWallet);\n        _;\n    }\n\n\n    /**\n     * Check if an address is in the list or not\n     * Returns true if exists else false\n     */\n    function contains(address[] storage list, address addr) \n            internal constant returns (bool) {\n        for (uint i = 0; i < list.length; i++) {\n            if (list[i] == addr) {\n                return true;\n            }\n        }\n        return false;\n    }\n\n    /**\n     * Allows the admin to add user to whitelist\n     */\n    function adminAddWhiteList(address _address) isOwner returns(bool){\n        whiteList[_address] = true;\n        return true;\n    }\n\n    /**\n     * Allows the admin to remove a user from whitelist\n     */\n    function adminRemoveWhiteList(address _address) isOwner returns(bool){\n        whiteList[_address] = false;\n        return true;\n    }\n}\n",
  "sourcePath": "/home/projects/projects/solidity_profit_share/contracts/ProfitShare.sol",
  "compiler": {
    "name": "solc",
    "version": "0.4.19+commit.c4cbbb05.Emscripten.clang"
  },
  "schemaVersion": "1.0.1",
  "updatedAt": "2018-03-06T02:34:03.296Z"
}