{
  "contractName": "ProfitShare",
  "abi": [
    {
      "constant": true,
      "inputs": [],
      "name": "name",
      "outputs": [
        {
          "name": "",
          "type": "string"
        }
      ],
      "payable": false,
      "stateMutability": "view",
      "type": "function"
    },
    {
      "constant": false,
      "inputs": [
        {
          "name": "_spender",
          "type": "address"
        },
        {
          "name": "_value",
          "type": "uint256"
        }
      ],
      "name": "approve",
      "outputs": [
        {
          "name": "",
          "type": "bool"
        }
      ],
      "payable": false,
      "stateMutability": "nonpayable",
      "type": "function"
    },
    {
      "constant": true,
      "inputs": [],
      "name": "totalSupply",
      "outputs": [
        {
          "name": "",
          "type": "uint256"
        }
      ],
      "payable": false,
      "stateMutability": "view",
      "type": "function"
    },
    {
      "constant": true,
      "inputs": [],
      "name": "fundsWallet",
      "outputs": [
        {
          "name": "",
          "type": "address"
        }
      ],
      "payable": false,
      "stateMutability": "view",
      "type": "function"
    },
    {
      "constant": true,
      "inputs": [
        {
          "name": "",
          "type": "uint256"
        }
      ],
      "name": "allBlacklist",
      "outputs": [
        {
          "name": "",
          "type": "address"
        }
      ],
      "payable": false,
      "stateMutability": "view",
      "type": "function"
    },
    {
      "constant": true,
      "inputs": [],
      "name": "decimals",
      "outputs": [
        {
          "name": "",
          "type": "uint256"
        }
      ],
      "payable": false,
      "stateMutability": "view",
      "type": "function"
    },
    {
      "constant": true,
      "inputs": [
        {
          "name": "",
          "type": "address"
        }
      ],
      "name": "whiteList",
      "outputs": [
        {
          "name": "",
          "type": "bool"
        }
      ],
      "payable": false,
      "stateMutability": "view",
      "type": "function"
    },
    {
      "constant": true,
      "inputs": [
        {
          "name": "",
          "type": "address"
        }
      ],
      "name": "blackList",
      "outputs": [
        {
          "name": "",
          "type": "bool"
        }
      ],
      "payable": false,
      "stateMutability": "view",
      "type": "function"
    },
    {
      "constant": false,
      "inputs": [
        {
          "name": "_spender",
          "type": "address"
        },
        {
          "name": "_subtractedValue",
          "type": "uint256"
        }
      ],
      "name": "decreaseApproval",
      "outputs": [
        {
          "name": "",
          "type": "bool"
        }
      ],
      "payable": false,
      "stateMutability": "nonpayable",
      "type": "function"
    },
    {
      "constant": true,
      "inputs": [],
      "name": "totalShareable",
      "outputs": [
        {
          "name": "",
          "type": "uint256"
        }
      ],
      "payable": false,
      "stateMutability": "view",
      "type": "function"
    },
    {
      "constant": true,
      "inputs": [
        {
          "name": "_owner",
          "type": "address"
        }
      ],
      "name": "balanceOf",
      "outputs": [
        {
          "name": "balance",
          "type": "uint256"
        }
      ],
      "payable": false,
      "stateMutability": "view",
      "type": "function"
    },
    {
      "constant": true,
      "inputs": [],
      "name": "coinPerETH",
      "outputs": [
        {
          "name": "",
          "type": "uint256"
        }
      ],
      "payable": false,
      "stateMutability": "view",
      "type": "function"
    },
    {
      "constant": true,
      "inputs": [],
      "name": "symbol",
      "outputs": [
        {
          "name": "",
          "type": "string"
        }
      ],
      "payable": false,
      "stateMutability": "view",
      "type": "function"
    },
    {
      "constant": true,
      "inputs": [
        {
          "name": "",
          "type": "uint256"
        }
      ],
      "name": "allUsers",
      "outputs": [
        {
          "name": "",
          "type": "address"
        }
      ],
      "payable": false,
      "stateMutability": "view",
      "type": "function"
    },
    {
      "constant": true,
      "inputs": [],
      "name": "totalRaised",
      "outputs": [
        {
          "name": "",
          "type": "uint256"
        }
      ],
      "payable": false,
      "stateMutability": "view",
      "type": "function"
    },
    {
      "constant": false,
      "inputs": [
        {
          "name": "_spender",
          "type": "address"
        },
        {
          "name": "_addedValue",
          "type": "uint256"
        }
      ],
      "name": "increaseApproval",
      "outputs": [
        {
          "name": "",
          "type": "bool"
        }
      ],
      "payable": false,
      "stateMutability": "nonpayable",
      "type": "function"
    },
    {
      "constant": true,
      "inputs": [
        {
          "name": "_owner",
          "type": "address"
        },
        {
          "name": "_spender",
          "type": "address"
        }
      ],
      "name": "allowance",
      "outputs": [
        {
          "name": "",
          "type": "uint256"
        }
      ],
      "payable": false,
      "stateMutability": "view",
      "type": "function"
    },
    {
      "inputs": [],
      "payable": false,
      "stateMutability": "nonpayable",
      "type": "constructor"
    },
    {
      "payable": true,
      "stateMutability": "payable",
      "type": "fallback"
    },
    {
      "anonymous": false,
      "inputs": [
        {
          "indexed": true,
          "name": "owner",
          "type": "address"
        },
        {
          "indexed": true,
          "name": "spender",
          "type": "address"
        },
        {
          "indexed": false,
          "name": "value",
          "type": "uint256"
        }
      ],
      "name": "Approval",
      "type": "event"
    },
    {
      "anonymous": false,
      "inputs": [
        {
          "indexed": true,
          "name": "from",
          "type": "address"
        },
        {
          "indexed": true,
          "name": "to",
          "type": "address"
        },
        {
          "indexed": false,
          "name": "value",
          "type": "uint256"
        }
      ],
      "name": "Transfer",
      "type": "event"
    },
    {
      "constant": false,
      "inputs": [],
      "name": "shareProfits",
      "outputs": [],
      "payable": false,
      "stateMutability": "nonpayable",
      "type": "function"
    },
    {
      "constant": true,
      "inputs": [],
      "name": "calculateTotalActiveCoins",
      "outputs": [
        {
          "name": "",
          "type": "uint256"
        }
      ],
      "payable": false,
      "stateMutability": "view",
      "type": "function"
    },
    {
      "constant": true,
      "inputs": [
        {
          "name": "index",
          "type": "uint256"
        }
      ],
      "name": "getUser",
      "outputs": [
        {
          "name": "",
          "type": "address"
        }
      ],
      "payable": false,
      "stateMutability": "view",
      "type": "function"
    },
    {
      "constant": true,
      "inputs": [
        {
          "name": "weiAmount",
          "type": "uint256"
        }
      ],
      "name": "calculateTokenAmount",
      "outputs": [
        {
          "name": "",
          "type": "uint256"
        }
      ],
      "payable": false,
      "stateMutability": "view",
      "type": "function"
    },
    {
      "constant": false,
      "inputs": [
        {
          "name": "_to",
          "type": "address"
        },
        {
          "name": "_value",
          "type": "uint256"
        }
      ],
      "name": "transfer",
      "outputs": [
        {
          "name": "",
          "type": "bool"
        }
      ],
      "payable": false,
      "stateMutability": "nonpayable",
      "type": "function"
    },
    {
      "constant": false,
      "inputs": [
        {
          "name": "_from",
          "type": "address"
        },
        {
          "name": "_to",
          "type": "address"
        },
        {
          "name": "_value",
          "type": "uint256"
        }
      ],
      "name": "transferFrom",
      "outputs": [
        {
          "name": "",
          "type": "bool"
        }
      ],
      "payable": false,
      "stateMutability": "nonpayable",
      "type": "function"
    },
    {
      "constant": false,
      "inputs": [
        {
          "name": "_address",
          "type": "address"
        }
      ],
      "name": "adminAddWhiteList",
      "outputs": [
        {
          "name": "",
          "type": "bool"
        }
      ],
      "payable": false,
      "stateMutability": "nonpayable",
      "type": "function"
    },
    {
      "constant": false,
      "inputs": [
        {
          "name": "_address",
          "type": "address"
        }
      ],
      "name": "adminRemoveWhiteList",
      "outputs": [
        {
          "name": "",
          "type": "bool"
        }
      ],
      "payable": false,
      "stateMutability": "nonpayable",
      "type": "function"
    },
    {
      "constant": false,
      "inputs": [
        {
          "name": "_address",
          "type": "address"
        },
        {
          "name": "_val",
          "type": "bool"
        }
      ],
      "name": "adminUpdateBlackList",
      "outputs": [
        {
          "name": "",
          "type": "bool"
        }
      ],
      "payable": false,
      "stateMutability": "nonpayable",
      "type": "function"
    }
  ],
  "bytecode": "0x60606040526040805190810160405280601181526020017f50726f666974536861726520546f6b656e0000000000000000000000000000008152506003908051906020019062000051929190620001fd565b506040805190810160405280600681526020017f5053686172650000000000000000000000000000000000000000000000000000815250600490805190602001906200009f929190620001fd565b506012600555600554600a0a63192cdad002600655620154cd6009553415620000c757600080fd5b738c7704ea2d934692b21419bf2a5ac6165a45ce98600e60006101000a81548173ffffffffffffffffffffffffffffffffffffffff021916908373ffffffffffffffffffffffffffffffffffffffff160217905550600654600080600e60009054906101000a900473ffffffffffffffffffffffffffffffffffffffff1673ffffffffffffffffffffffffffffffffffffffff1673ffffffffffffffffffffffffffffffffffffffff16815260200190815260200160002081905550600e60009054906101000a900473ffffffffffffffffffffffffffffffffffffffff1673ffffffffffffffffffffffffffffffffffffffff1660007fddf252ad1be2c89b69c2b068fc378daa952ba7f163c4a11628f55a4df523b3ef6006546040518082815260200191505060405180910390a3620002ac565b828054600181600116156101000203166002900490600052602060002090601f016020900481019282601f106200024057805160ff191683800117855562000271565b8280016001018555821562000271579182015b828111156200027057825182559160200191906001019062000253565b5b50905062000280919062000284565b5090565b620002a991905b80821115620002a55760008160009055506001016200028b565b5090565b90565b61271980620002bc6000396000f300606060405260043610610154576000357c0100000000000000000000000000000000000000000000000000000000900463ffffffff1680630191f99c1461066b57806306fdde03146106bc578063095ea7b31461074a57806313b69b19146107a457806318160ddd146107f55780632194f3a21461081e57806323b872dd146108735780632407e552146108ec57806326767cfe1461094f578063313ce56714610964578063372c12b11461098d5780634838d165146109de578063640092a814610a2f5780636618846314610a585780636f4ed7d514610ab257806370a0823114610adb57806374fa677d14610b2857806386ccb1c514610b5157806395d89b4114610bad578063a24bcf4614610c3b578063a2bdedf414610c72578063a9059cbb14610cd5578063b0467deb14610d2f578063c5c4744c14610d92578063d73dd62314610dbb578063dd62ed3e14610e15575b6000600e60009054906101000a900473ffffffffffffffffffffffffffffffffffffffff1673ffffffffffffffffffffffffffffffffffffffff163373ffffffffffffffffffffffffffffffffffffffff1614806101ca57506006546101c7600954600754610e8190919063ffffffff16565b11155b15156101d557600080fd5b600554600a0a6101f060095434610e8190919063ffffffff16565b101515156101fd57600080fd5b600b60003373ffffffffffffffffffffffffffffffffffffffff1673ffffffffffffffffffffffffffffffffffffffff16815260200190815260200160002060009054906101000a900460ff16806102a25750600e60009054906101000a900473ffffffffffffffffffffffffffffffffffffffff1673ffffffffffffffffffffffffffffffffffffffff163373ffffffffffffffffffffffffffffffffffffffff16145b15156102ad57600080fd5b600e60009054906101000a900473ffffffffffffffffffffffffffffffffffffffff1673ffffffffffffffffffffffffffffffffffffffff163373ffffffffffffffffffffffffffffffffffffffff1614156103175734600881905550610312610ebc565b610668565b61032c3460075461108d90919063ffffffff16565b60078190555061033b346110ab565b90506103b081600080600e60009054906101000a900473ffffffffffffffffffffffffffffffffffffffff1673ffffffffffffffffffffffffffffffffffffffff1673ffffffffffffffffffffffffffffffffffffffff168152602001908152602001600020546110ce90919063ffffffff16565b600080600e60009054906101000a900473ffffffffffffffffffffffffffffffffffffffff1673ffffffffffffffffffffffffffffffffffffffff1673ffffffffffffffffffffffffffffffffffffffff1681526020019081526020016000208190555061041f600a336110e7565b15801561047a5750600e60009054906101000a900473ffffffffffffffffffffffffffffffffffffffff1673ffffffffffffffffffffffffffffffffffffffff163373ffffffffffffffffffffffffffffffffffffffff1614155b156104eb5733600a808054809190600101610495919061269c565b8154811015156104a157fe5b906000526020600020900160006101000a81548173ffffffffffffffffffffffffffffffffffffffff021916908373ffffffffffffffffffffffffffffffffffffffff1602179055505b61053c816000803373ffffffffffffffffffffffffffffffffffffffff1673ffffffffffffffffffffffffffffffffffffffff1681526020019081526020016000205461108d90919063ffffffff16565b6000803373ffffffffffffffffffffffffffffffffffffffff1673ffffffffffffffffffffffffffffffffffffffff168152602001908152602001600020819055503373ffffffffffffffffffffffffffffffffffffffff16600e60009054906101000a900473ffffffffffffffffffffffffffffffffffffffff1673ffffffffffffffffffffffffffffffffffffffff167fddf252ad1be2c89b69c2b068fc378daa952ba7f163c4a11628f55a4df523b3ef836040518082815260200191505060405180910390a3600e60009054906101000a900473ffffffffffffffffffffffffffffffffffffffff1673ffffffffffffffffffffffffffffffffffffffff166108fc349081150290604051600060405180830381858888f19350505050151561066757600080fd5b5b50005b341561067657600080fd5b6106a2600480803573ffffffffffffffffffffffffffffffffffffffff1690602001909190505061118a565b604051808215151515815260200191505060405180910390f35b34156106c757600080fd5b6106cf611249565b6040518080602001828103825283818151815260200191508051906020019080838360005b8381101561070f5780820151818401526020810190506106f4565b50505050905090810190601f16801561073c5780820380516001836020036101000a031916815260200191505b509250505060405180910390f35b341561075557600080fd5b61078a600480803573ffffffffffffffffffffffffffffffffffffffff169060200190919080359060200190919050506112e7565b604051808215151515815260200191505060405180910390f35b34156107af57600080fd5b6107db600480803573ffffffffffffffffffffffffffffffffffffffff169060200190919050506113d9565b604051808215151515815260200191505060405180910390f35b341561080057600080fd5b610808611498565b6040518082815260200191505060405180910390f35b341561082957600080fd5b61083161149e565b604051808273ffffffffffffffffffffffffffffffffffffffff1673ffffffffffffffffffffffffffffffffffffffff16815260200191505060405180910390f35b341561087e57600080fd5b6108d2600480803573ffffffffffffffffffffffffffffffffffffffff1690602001909190803573ffffffffffffffffffffffffffffffffffffffff169060200190919080359060200190919050506114c4565b604051808215151515815260200191505060405180910390f35b34156108f757600080fd5b61090d60048080359060200190919050506115b1565b604051808273ffffffffffffffffffffffffffffffffffffffff1673ffffffffffffffffffffffffffffffffffffffff16815260200191505060405180910390f35b341561095a57600080fd5b610962610ebc565b005b341561096f57600080fd5b6109776115f0565b6040518082815260200191505060405180910390f35b341561099857600080fd5b6109c4600480803573ffffffffffffffffffffffffffffffffffffffff169060200190919050506115f6565b604051808215151515815260200191505060405180910390f35b34156109e957600080fd5b610a15600480803573ffffffffffffffffffffffffffffffffffffffff16906020019091905050611616565b604051808215151515815260200191505060405180910390f35b3415610a3a57600080fd5b610a42611636565b6040518082815260200191505060405180910390f35b3415610a6357600080fd5b610a98600480803573ffffffffffffffffffffffffffffffffffffffff169060200190919080359060200190919050506117f3565b604051808215151515815260200191505060405180910390f35b3415610abd57600080fd5b610ac5611a84565b6040518082815260200191505060405180910390f35b3415610ae657600080fd5b610b12600480803573ffffffffffffffffffffffffffffffffffffffff16906020019091905050611a8a565b6040518082815260200191505060405180910390f35b3415610b3357600080fd5b610b3b611ad2565b6040518082815260200191505060405180910390f35b3415610b5c57600080fd5b610b93600480803573ffffffffffffffffffffffffffffffffffffffff169060200190919080351515906020019091905050611ad8565b604051808215151515815260200191505060405180910390f35b3415610bb857600080fd5b610bc0611c13565b6040518080602001828103825283818151815260200191508051906020019080838360005b83811015610c00578082015181840152602081019050610be5565b50505050905090810190601f168015610c2d5780820380516001836020036101000a031916815260200191505b509250505060405180910390f35b3415610c4657600080fd5b610c5c60048080359060200190919050506110ab565b6040518082815260200191505060405180910390f35b3415610c7d57600080fd5b610c936004808035906020019091905050611cb1565b604051808273ffffffffffffffffffffffffffffffffffffffff1673ffffffffffffffffffffffffffffffffffffffff16815260200191505060405180910390f35b3415610ce057600080fd5b610d15600480803573ffffffffffffffffffffffffffffffffffffffff16906020019091908035906020019091905050611cf0565b604051808215151515815260200191505060405180910390f35b3415610d3a57600080fd5b610d506004808035906020019091905050611ddb565b604051808273ffffffffffffffffffffffffffffffffffffffff1673ffffffffffffffffffffffffffffffffffffffff16815260200191505060405180910390f35b3415610d9d57600080fd5b610da5611e1f565b6040518082815260200191505060405180910390f35b3415610dc657600080fd5b610dfb600480803573ffffffffffffffffffffffffffffffffffffffff16906020019091908035906020019091905050611e25565b604051808215151515815260200191505060405180910390f35b3415610e2057600080fd5b610e6b600480803573ffffffffffffffffffffffffffffffffffffffff1690602001909190803573ffffffffffffffffffffffffffffffffffffffff16906020019091905050612021565b6040518082815260200191505060405180910390f35b6000806000841415610e965760009150610eb5565b8284029050828482811515610ea757fe5b04141515610eb157fe5b8091505b5092915050565b6000806000610ec9611636565b9250600091505b600a80549050821015611088576000806000600a85815481101515610ef157fe5b906000526020600020900160009054906101000a900473ffffffffffffffffffffffffffffffffffffffff1673ffffffffffffffffffffffffffffffffffffffff1673ffffffffffffffffffffffffffffffffffffffff1681526020019081526020016000205414151561107b57610ffe83610ff0600854600080600a88815481101515610f7b57fe5b906000526020600020900160009054906101000a900473ffffffffffffffffffffffffffffffffffffffff1673ffffffffffffffffffffffffffffffffffffffff1673ffffffffffffffffffffffffffffffffffffffff16815260200190815260200160002054610e8190919063ffffffff16565b6120a890919063ffffffff16565b9050600a8281548110151561100f57fe5b906000526020600020900160009054906101000a900473ffffffffffffffffffffffffffffffffffffffff1673ffffffffffffffffffffffffffffffffffffffff166108fc829081150290604051600060405180830381858888f19350505050151561107a57600080fd5b5b8180600101925050610ed0565b505050565b60008082840190508381101515156110a157fe5b8091505092915050565b6000806110c360095484610e8190919063ffffffff16565b905080915050919050565b60008282111515156110dc57fe5b818303905092915050565b600080600090505b838054905081101561117e578273ffffffffffffffffffffffffffffffffffffffff16848281548110151561112057fe5b906000526020600020900160009054906101000a900473ffffffffffffffffffffffffffffffffffffffff1673ffffffffffffffffffffffffffffffffffffffff1614156111715760019150611183565b80806001019150506110ef565b600091505b5092915050565b6000600e60009054906101000a900473ffffffffffffffffffffffffffffffffffffffff1673ffffffffffffffffffffffffffffffffffffffff163373ffffffffffffffffffffffffffffffffffffffff161415156111e857600080fd5b6000600b60008473ffffffffffffffffffffffffffffffffffffffff1673ffffffffffffffffffffffffffffffffffffffff16815260200190815260200160002060006101000a81548160ff02191690831515021790555060019050919050565b60038054600181600116156101000203166002900480601f0160208091040260200160405190810160405280929190818152602001828054600181600116156101000203166002900480156112df5780601f106112b4576101008083540402835291602001916112df565b820191906000526020600020905b8154815290600101906020018083116112c257829003601f168201915b505050505081565b600081600260003373ffffffffffffffffffffffffffffffffffffffff1673ffffffffffffffffffffffffffffffffffffffff16815260200190815260200160002060008573ffffffffffffffffffffffffffffffffffffffff1673ffffffffffffffffffffffffffffffffffffffff168152602001908152602001600020819055508273ffffffffffffffffffffffffffffffffffffffff163373ffffffffffffffffffffffffffffffffffffffff167f8c5be1e5ebec7d5bd14f71427d1e84f3dd0314c0f7b2291e5b200ac8c7c3b925846040518082815260200191505060405180910390a36001905092915050565b6000600e60009054906101000a900473ffffffffffffffffffffffffffffffffffffffff1673ffffffffffffffffffffffffffffffffffffffff163373ffffffffffffffffffffffffffffffffffffffff1614151561143757600080fd5b6001600b60008473ffffffffffffffffffffffffffffffffffffffff1673ffffffffffffffffffffffffffffffffffffffff16815260200190815260200160002060006101000a81548160ff02191690831515021790555060019050919050565b60065481565b600e60009054906101000a900473ffffffffffffffffffffffffffffffffffffffff1681565b60006114d1600a846110e7565b15801561152c5750600e60009054906101000a900473ffffffffffffffffffffffffffffffffffffffff1673ffffffffffffffffffffffffffffffffffffffff168373ffffffffffffffffffffffffffffffffffffffff1614155b1561159d5782600a808054809190600101611547919061269c565b81548110151561155357fe5b906000526020600020900160006101000a81548173ffffffffffffffffffffffffffffffffffffffff021916908373ffffffffffffffffffffffffffffffffffffffff1602179055505b6115a88484846120c3565b90509392505050565b600d818154811015156115c057fe5b90600052602060002090016000915054906101000a900473ffffffffffffffffffffffffffffffffffffffff1681565b60055481565b600b6020528060005260406000206000915054906101000a900460ff1681565b600c6020528060005260406000206000915054906101000a900460ff1681565b60008060006116b0600080600e60009054906101000a900473ffffffffffffffffffffffffffffffffffffffff1673ffffffffffffffffffffffffffffffffffffffff1673ffffffffffffffffffffffffffffffffffffffff168152602001908152602001600020546006546110ce90919063ffffffff16565b9150600090505b600d805490508110156117eb57600c6000600d838154811015156116d757fe5b906000526020600020900160009054906101000a900473ffffffffffffffffffffffffffffffffffffffff1673ffffffffffffffffffffffffffffffffffffffff1673ffffffffffffffffffffffffffffffffffffffff16815260200190815260200160002060009054906101000a900460ff16156117de576117db600080600d8481548110151561176557fe5b906000526020600020900160009054906101000a900473ffffffffffffffffffffffffffffffffffffffff1673ffffffffffffffffffffffffffffffffffffffff1673ffffffffffffffffffffffffffffffffffffffff16815260200190815260200160002054836110ce90919063ffffffff16565b91505b80806001019150506116b7565b819250505090565b600080600260003373ffffffffffffffffffffffffffffffffffffffff1673ffffffffffffffffffffffffffffffffffffffff16815260200190815260200160002060008573ffffffffffffffffffffffffffffffffffffffff1673ffffffffffffffffffffffffffffffffffffffff16815260200190815260200160002054905080831115611904576000600260003373ffffffffffffffffffffffffffffffffffffffff1673ffffffffffffffffffffffffffffffffffffffff16815260200190815260200160002060008673ffffffffffffffffffffffffffffffffffffffff1673ffffffffffffffffffffffffffffffffffffffff16815260200190815260200160002081905550611998565b61191783826110ce90919063ffffffff16565b600260003373ffffffffffffffffffffffffffffffffffffffff1673ffffffffffffffffffffffffffffffffffffffff16815260200190815260200160002060008673ffffffffffffffffffffffffffffffffffffffff1673ffffffffffffffffffffffffffffffffffffffff168152602001908152602001600020819055505b8373ffffffffffffffffffffffffffffffffffffffff163373ffffffffffffffffffffffffffffffffffffffff167f8c5be1e5ebec7d5bd14f71427d1e84f3dd0314c0f7b2291e5b200ac8c7c3b925600260003373ffffffffffffffffffffffffffffffffffffffff1673ffffffffffffffffffffffffffffffffffffffff16815260200190815260200160002060008873ffffffffffffffffffffffffffffffffffffffff1673ffffffffffffffffffffffffffffffffffffffff168152602001908152602001600020546040518082815260200191505060405180910390a3600191505092915050565b60085481565b60008060008373ffffffffffffffffffffffffffffffffffffffff1673ffffffffffffffffffffffffffffffffffffffff168152602001908152602001600020549050919050565b60095481565b6000600e60009054906101000a900473ffffffffffffffffffffffffffffffffffffffff1673ffffffffffffffffffffffffffffffffffffffff163373ffffffffffffffffffffffffffffffffffffffff16141515611b3657600080fd5b81600c60008573ffffffffffffffffffffffffffffffffffffffff1673ffffffffffffffffffffffffffffffffffffffff16815260200190815260200160002060006101000a81548160ff021916908315150217905550611b98600d846110e7565b1515611c095782600d8080546001019081611bb3919061269c565b815481101515611bbf57fe5b906000526020600020900160006101000a81548173ffffffffffffffffffffffffffffffffffffffff021916908373ffffffffffffffffffffffffffffffffffffffff1602179055505b6001905092915050565b60048054600181600116156101000203166002900480601f016020809104026020016040519081016040528092919081815260200182805460018160011615610100020316600290048015611ca95780601f10611c7e57610100808354040283529160200191611ca9565b820191906000526020600020905b815481529060010190602001808311611c8c57829003601f168201915b505050505081565b600a81815481101515611cc057fe5b90600052602060002090016000915054906101000a900473ffffffffffffffffffffffffffffffffffffffff1681565b6000611cfd600a846110e7565b158015611d585750600e60009054906101000a900473ffffffffffffffffffffffffffffffffffffffff1673ffffffffffffffffffffffffffffffffffffffff168373ffffffffffffffffffffffffffffffffffffffff1614155b15611dc95782600a808054809190600101611d73919061269c565b815481101515611d7f57fe5b906000526020600020900160006101000a81548173ffffffffffffffffffffffffffffffffffffffff021916908373ffffffffffffffffffffffffffffffffffffffff1602179055505b611dd3838361247d565b905092915050565b6000600a82815481101515611dec57fe5b906000526020600020900160009054906101000a900473ffffffffffffffffffffffffffffffffffffffff169050919050565b60075481565b6000611eb682600260003373ffffffffffffffffffffffffffffffffffffffff1673ffffffffffffffffffffffffffffffffffffffff16815260200190815260200160002060008673ffffffffffffffffffffffffffffffffffffffff1673ffffffffffffffffffffffffffffffffffffffff1681526020019081526020016000205461108d90919063ffffffff16565b600260003373ffffffffffffffffffffffffffffffffffffffff1673ffffffffffffffffffffffffffffffffffffffff16815260200190815260200160002060008573ffffffffffffffffffffffffffffffffffffffff1673ffffffffffffffffffffffffffffffffffffffff168152602001908152602001600020819055508273ffffffffffffffffffffffffffffffffffffffff163373ffffffffffffffffffffffffffffffffffffffff167f8c5be1e5ebec7d5bd14f71427d1e84f3dd0314c0f7b2291e5b200ac8c7c3b925600260003373ffffffffffffffffffffffffffffffffffffffff1673ffffffffffffffffffffffffffffffffffffffff16815260200190815260200160002060008773ffffffffffffffffffffffffffffffffffffffff1673ffffffffffffffffffffffffffffffffffffffff168152602001908152602001600020546040518082815260200191505060405180910390a36001905092915050565b6000600260008473ffffffffffffffffffffffffffffffffffffffff1673ffffffffffffffffffffffffffffffffffffffff16815260200190815260200160002060008373ffffffffffffffffffffffffffffffffffffffff1673ffffffffffffffffffffffffffffffffffffffff16815260200190815260200160002054905092915050565b60008082848115156120b657fe5b0490508091505092915050565b60008073ffffffffffffffffffffffffffffffffffffffff168373ffffffffffffffffffffffffffffffffffffffff161415151561210057600080fd5b6000808573ffffffffffffffffffffffffffffffffffffffff1673ffffffffffffffffffffffffffffffffffffffff16815260200190815260200160002054821115151561214d57600080fd5b600260008573ffffffffffffffffffffffffffffffffffffffff1673ffffffffffffffffffffffffffffffffffffffff16815260200190815260200160002060003373ffffffffffffffffffffffffffffffffffffffff1673ffffffffffffffffffffffffffffffffffffffff1681526020019081526020016000205482111515156121d857600080fd5b612229826000808773ffffffffffffffffffffffffffffffffffffffff1673ffffffffffffffffffffffffffffffffffffffff168152602001908152602001600020546110ce90919063ffffffff16565b6000808673ffffffffffffffffffffffffffffffffffffffff1673ffffffffffffffffffffffffffffffffffffffff168152602001908152602001600020819055506122bc826000808673ffffffffffffffffffffffffffffffffffffffff1673ffffffffffffffffffffffffffffffffffffffff1681526020019081526020016000205461108d90919063ffffffff16565b6000808573ffffffffffffffffffffffffffffffffffffffff1673ffffffffffffffffffffffffffffffffffffffff1681526020019081526020016000208190555061238d82600260008773ffffffffffffffffffffffffffffffffffffffff1673ffffffffffffffffffffffffffffffffffffffff16815260200190815260200160002060003373ffffffffffffffffffffffffffffffffffffffff1673ffffffffffffffffffffffffffffffffffffffff168152602001908152602001600020546110ce90919063ffffffff16565b600260008673ffffffffffffffffffffffffffffffffffffffff1673ffffffffffffffffffffffffffffffffffffffff16815260200190815260200160002060003373ffffffffffffffffffffffffffffffffffffffff1673ffffffffffffffffffffffffffffffffffffffff168152602001908152602001600020819055508273ffffffffffffffffffffffffffffffffffffffff168473ffffffffffffffffffffffffffffffffffffffff167fddf252ad1be2c89b69c2b068fc378daa952ba7f163c4a11628f55a4df523b3ef846040518082815260200191505060405180910390a3600190509392505050565b60008073ffffffffffffffffffffffffffffffffffffffff168373ffffffffffffffffffffffffffffffffffffffff16141515156124ba57600080fd5b6000803373ffffffffffffffffffffffffffffffffffffffff1673ffffffffffffffffffffffffffffffffffffffff16815260200190815260200160002054821115151561250757600080fd5b612558826000803373ffffffffffffffffffffffffffffffffffffffff1673ffffffffffffffffffffffffffffffffffffffff168152602001908152602001600020546110ce90919063ffffffff16565b6000803373ffffffffffffffffffffffffffffffffffffffff1673ffffffffffffffffffffffffffffffffffffffff168152602001908152602001600020819055506125eb826000808673ffffffffffffffffffffffffffffffffffffffff1673ffffffffffffffffffffffffffffffffffffffff1681526020019081526020016000205461108d90919063ffffffff16565b6000808573ffffffffffffffffffffffffffffffffffffffff1673ffffffffffffffffffffffffffffffffffffffff168152602001908152602001600020819055508273ffffffffffffffffffffffffffffffffffffffff163373ffffffffffffffffffffffffffffffffffffffff167fddf252ad1be2c89b69c2b068fc378daa952ba7f163c4a11628f55a4df523b3ef846040518082815260200191505060405180910390a36001905092915050565b8154818355818115116126c3578183600052602060002091820191016126c291906126c8565b5b505050565b6126ea91905b808211156126e65760008160009055506001016126ce565b5090565b905600a165627a7a723058200d2925dd268424f43ad55592d16fa4fe90a2928333e8add74181445bd90b59590029",
  "source": "pragma solidity ^0.4.15;\n\nimport 'zeppelin-solidity/contracts/token/ERC20/ERC20Basic.sol';\nimport 'zeppelin-solidity/contracts/token/ERC20/StandardToken.sol';\n\ncontract ProfitShare is StandardToken{\n    using SafeMath for uint256;\n\n    string public name = \"ProfitShare Token\";\n    string public symbol = \"PShare\";\n    uint256 public decimals = 18;\n\n    // 267M\n    uint256 public totalSupply = 422370000 * (uint256(10) ** decimals);\n    uint256 public totalRaised; // total ether raised (in wei)\n\n    uint256 public totalShareable; // total shareable ethers (in wei)\n\n    // 1 ETH = 87245 PShare\n    uint256 public coinPerETH = 87245;\n\n    /**\n     * List of all users\n     */\n    address[] public allUsers;\n\n    // whitelisted users\n    mapping(address => bool) public whiteList;\n\n    mapping(address => bool) public blackList;\n    address[] public allBlacklist;\n\n    /**\n     * Address which will receive raised funds \n     * and owns the total supply of tokens\n     */\n    address public fundsWallet;\n\n\n    function ProfitShare() {\n        fundsWallet = 0x8c7704eA2d934692B21419Bf2a5AC6165a45CE98;\n        balances[fundsWallet] = totalSupply;\n\n        //blackList[fundsWallet] = true;\n        //allBlacklist[++allBlacklist.length] = fundsWallet;\n\n        // launch coins and send them to fundsWallet\n        Transfer(0x0, fundsWallet, totalSupply);\n    }\n\n    /**\n     * This function will be called when\n     * users send ETH to buy the tokens.\n     * \n     * We will calculate the Pshare amount and send to their wallets\n     */\n    function() isIcoOpen checkMin isInWhitelist payable{\n        if(msg.sender == fundsWallet){\n            totalShareable = msg.value;\n            return shareProfits();\n        }\n        totalRaised = totalRaised.add(msg.value);\n\n        uint256 tokenAmount = calculateTokenAmount(msg.value);\n\n        balances[fundsWallet] = balances[fundsWallet].sub(tokenAmount);\n\n        // If its the first time that the user is paying \n        if(!contains(allUsers, msg.sender) && msg.sender != fundsWallet){\n            allUsers[allUsers.length++] = msg.sender;\n        }\n\n        balances[msg.sender] = balances[msg.sender].add(tokenAmount);\n \n        Transfer(fundsWallet, msg.sender, tokenAmount);\n\n        // immediately transfer ether to fundsWallet\n        fundsWallet.transfer(msg.value);\n    }\n\n    /**\n     * Shares profit between all coin holders\n     */    \n    function shareProfits(){\n        uint256 totalActiveCoins = calculateTotalActiveCoins();\n        for (uint i = 0; i < allUsers.length; i++) {\n            if(balances[allUsers[i]] != 0){\n                uint256 shareMount = balances[allUsers[i]].mul(totalShareable).div(totalActiveCoins);\n                allUsers[i].transfer(shareMount);\n            }\n        }\n    }\n\n    /**\n     * Calculates total number of active coins\n     */\n    function calculateTotalActiveCoins() constant returns(uint256){\n        uint256 total = totalSupply.sub(balances[fundsWallet]);\n        for (uint i = 0; i < allBlacklist.length; i++) {\n            if(blackList[allBlacklist[i]]){\n                total = total.sub(balances[allBlacklist[i]]);\n            }\n        }\n        return total;\n    }\n\n    /**\n     * Returns allUsers elements\n     */\n    function getUser(uint256 index) constant returns(address){\n        return allUsers[index];\n    }\n\n    /**\n     * Calculates the total PShare amount\n     */\n    function calculateTokenAmount(uint256 weiAmount) constant returns(uint256) {\n        uint256 tokenAmount = weiAmount.mul(coinPerETH);\n        return tokenAmount;\n    }\n\n    /**\n     * Transfers tokens to a new wallet\n     * \n     * @param   _to -- destination address\n     * @param   _value -- wie amount\n     */\n    function transfer(address _to, uint _value) returns (bool) {\n        if(!contains(allUsers, _to) && _to != fundsWallet){\n            allUsers[allUsers.length++] = _to;\n        }\n        return super.transfer(_to, _value);\n    }\n\n    /**\n     * Transfers tokens from one wallet to an another wallet\n     * \n     * @param   _from -- source address\n     * @param   _to -- destination address\n     * @param   _value -- wie amount\n     */\n    function transferFrom(address _from, address _to, uint _value) returns (bool) {\n        if(!contains(allUsers, _to) && _to != fundsWallet){\n            allUsers[allUsers.length++] = _to;\n        }\n        return super.transferFrom(_from, _to, _value);\n    }\n\n    /**\n     * Throws an exception and reject the transaction when we don't have enough \n     * tokens.\n     * When all tokens are sold out, the contract can't accept new incoming ethers\n     * and need to reject transactions\n     */\n    modifier isIcoOpen() {\n        require(msg.sender == fundsWallet ||\n            totalRaised.mul(coinPerETH) <= totalSupply);\n        _;\n    }\n\n    /**\n     * Investors can buy at least 1 Pshare.\n     * Smaller amounts will be rejected.\n     */\n    modifier checkMin(){\n        require(msg.value.mul(coinPerETH) >= (uint256(10) ** decimals));\n        _;\n    }\n\n    /**\n     * Checks to make sure that the sender is admin.\n     * Will throw an exception and reject the transaction if the sender is not admin.\n     * We need this function for some restricted functions.\n     */\n    modifier isOwner(){\n        require(msg.sender == fundsWallet);\n        _;\n    }\n\n    /**\n     * Checks to make sure that the sender is in WhiteList\n     */\n    modifier isInWhitelist(){\n        require(whiteList[msg.sender] || msg.sender == fundsWallet);\n        _;\n    }\n\n\n    /**\n     * Check if an address is in the list or not\n     * Returns true if exists else false\n     */\n    function contains(address[] storage list, address addr) \n            internal constant returns (bool) {\n        for (uint i = 0; i < list.length; i++) {\n            if (list[i] == addr) {\n                return true;\n            }\n        }\n        return false;\n    }\n\n    /**\n     * Allows the admin to add user to whitelist\n     */\n    function adminAddWhiteList(address _address) isOwner returns(bool){\n        whiteList[_address] = true;\n        return true;\n    }\n\n    /**\n     * Allows the admin to remove a user from whitelist\n     */\n    function adminRemoveWhiteList(address _address) isOwner returns(bool){\n        whiteList[_address] = false;\n        return true;\n    }\n\n    /**\n     * Allows the admin to update the status of an address on blackList\n     */\n    function adminUpdateBlackList(address _address, bool _val) isOwner returns(bool){\n        blackList[_address] = _val;\n        if(!contains(allBlacklist, _address)){\n            allBlacklist[++allBlacklist.length] = _address;\n        }\n        return true;\n    }\n}\n",
  "sourcePath": "/home/projects/SolidityProfitShare/contracts/ProfitShare.sol",
  "compiler": {
    "name": "solc",
    "version": "0.4.19+commit.c4cbbb05.Emscripten.clang"
  },
  "schemaVersion": "1.0.1",
  "updatedAt": "2018-03-12T22:49:13.357Z"
}