{
  "contractName": "ProfitShare",
  "abi": [
    {
      "constant": true,
      "inputs": [],
      "name": "name",
      "outputs": [
        {
          "name": "",
          "type": "string"
        }
      ],
      "payable": false,
      "stateMutability": "view",
      "type": "function"
    },
    {
      "constant": false,
      "inputs": [
        {
          "name": "_spender",
          "type": "address"
        },
        {
          "name": "_value",
          "type": "uint256"
        }
      ],
      "name": "approve",
      "outputs": [
        {
          "name": "",
          "type": "bool"
        }
      ],
      "payable": false,
      "stateMutability": "nonpayable",
      "type": "function"
    },
    {
      "constant": true,
      "inputs": [],
      "name": "totalSupply",
      "outputs": [
        {
          "name": "",
          "type": "uint256"
        }
      ],
      "payable": false,
      "stateMutability": "view",
      "type": "function"
    },
    {
      "constant": true,
      "inputs": [],
      "name": "fundsWallet",
      "outputs": [
        {
          "name": "",
          "type": "address"
        }
      ],
      "payable": false,
      "stateMutability": "view",
      "type": "function"
    },
    {
      "constant": true,
      "inputs": [],
      "name": "decimals",
      "outputs": [
        {
          "name": "",
          "type": "uint256"
        }
      ],
      "payable": false,
      "stateMutability": "view",
      "type": "function"
    },
    {
      "constant": false,
      "inputs": [
        {
          "name": "_spender",
          "type": "address"
        },
        {
          "name": "_subtractedValue",
          "type": "uint256"
        }
      ],
      "name": "decreaseApproval",
      "outputs": [
        {
          "name": "",
          "type": "bool"
        }
      ],
      "payable": false,
      "stateMutability": "nonpayable",
      "type": "function"
    },
    {
      "constant": true,
      "inputs": [],
      "name": "totalShareable",
      "outputs": [
        {
          "name": "",
          "type": "uint256"
        }
      ],
      "payable": false,
      "stateMutability": "view",
      "type": "function"
    },
    {
      "constant": true,
      "inputs": [
        {
          "name": "_owner",
          "type": "address"
        }
      ],
      "name": "balanceOf",
      "outputs": [
        {
          "name": "balance",
          "type": "uint256"
        }
      ],
      "payable": false,
      "stateMutability": "view",
      "type": "function"
    },
    {
      "constant": true,
      "inputs": [],
      "name": "coinPerETH",
      "outputs": [
        {
          "name": "",
          "type": "uint256"
        }
      ],
      "payable": false,
      "stateMutability": "view",
      "type": "function"
    },
    {
      "constant": true,
      "inputs": [],
      "name": "symbol",
      "outputs": [
        {
          "name": "",
          "type": "string"
        }
      ],
      "payable": false,
      "stateMutability": "view",
      "type": "function"
    },
    {
      "constant": true,
      "inputs": [
        {
          "name": "",
          "type": "uint256"
        }
      ],
      "name": "allUsers",
      "outputs": [
        {
          "name": "",
          "type": "address"
        }
      ],
      "payable": false,
      "stateMutability": "view",
      "type": "function"
    },
    {
      "constant": true,
      "inputs": [],
      "name": "totalRaised",
      "outputs": [
        {
          "name": "",
          "type": "uint256"
        }
      ],
      "payable": false,
      "stateMutability": "view",
      "type": "function"
    },
    {
      "constant": false,
      "inputs": [
        {
          "name": "_spender",
          "type": "address"
        },
        {
          "name": "_addedValue",
          "type": "uint256"
        }
      ],
      "name": "increaseApproval",
      "outputs": [
        {
          "name": "",
          "type": "bool"
        }
      ],
      "payable": false,
      "stateMutability": "nonpayable",
      "type": "function"
    },
    {
      "constant": true,
      "inputs": [
        {
          "name": "_owner",
          "type": "address"
        },
        {
          "name": "_spender",
          "type": "address"
        }
      ],
      "name": "allowance",
      "outputs": [
        {
          "name": "",
          "type": "uint256"
        }
      ],
      "payable": false,
      "stateMutability": "view",
      "type": "function"
    },
    {
      "inputs": [],
      "payable": false,
      "stateMutability": "nonpayable",
      "type": "constructor"
    },
    {
      "payable": true,
      "stateMutability": "payable",
      "type": "fallback"
    },
    {
      "anonymous": false,
      "inputs": [
        {
          "indexed": true,
          "name": "owner",
          "type": "address"
        },
        {
          "indexed": true,
          "name": "spender",
          "type": "address"
        },
        {
          "indexed": false,
          "name": "value",
          "type": "uint256"
        }
      ],
      "name": "Approval",
      "type": "event"
    },
    {
      "anonymous": false,
      "inputs": [
        {
          "indexed": true,
          "name": "from",
          "type": "address"
        },
        {
          "indexed": true,
          "name": "to",
          "type": "address"
        },
        {
          "indexed": false,
          "name": "value",
          "type": "uint256"
        }
      ],
      "name": "Transfer",
      "type": "event"
    },
    {
      "constant": false,
      "inputs": [],
      "name": "shareProfits",
      "outputs": [],
      "payable": false,
      "stateMutability": "nonpayable",
      "type": "function"
    },
    {
      "constant": true,
      "inputs": [],
      "name": "calculateTotalActiveCoins",
      "outputs": [
        {
          "name": "",
          "type": "uint256"
        }
      ],
      "payable": false,
      "stateMutability": "view",
      "type": "function"
    },
    {
      "constant": true,
      "inputs": [
        {
          "name": "index",
          "type": "uint256"
        }
      ],
      "name": "getUser",
      "outputs": [
        {
          "name": "",
          "type": "address"
        }
      ],
      "payable": false,
      "stateMutability": "view",
      "type": "function"
    },
    {
      "constant": true,
      "inputs": [
        {
          "name": "weiAmount",
          "type": "uint256"
        }
      ],
      "name": "calculateTokenAmount",
      "outputs": [
        {
          "name": "",
          "type": "uint256"
        }
      ],
      "payable": false,
      "stateMutability": "view",
      "type": "function"
    },
    {
      "constant": false,
      "inputs": [
        {
          "name": "_to",
          "type": "address"
        },
        {
          "name": "_value",
          "type": "uint256"
        }
      ],
      "name": "transfer",
      "outputs": [
        {
          "name": "",
          "type": "bool"
        }
      ],
      "payable": false,
      "stateMutability": "nonpayable",
      "type": "function"
    },
    {
      "constant": false,
      "inputs": [
        {
          "name": "_from",
          "type": "address"
        },
        {
          "name": "_to",
          "type": "address"
        },
        {
          "name": "_value",
          "type": "uint256"
        }
      ],
      "name": "transferFrom",
      "outputs": [
        {
          "name": "",
          "type": "bool"
        }
      ],
      "payable": false,
      "stateMutability": "nonpayable",
      "type": "function"
    },
    {
      "constant": false,
      "inputs": [
        {
          "name": "_address",
          "type": "address"
        }
      ],
      "name": "adminAddWhiteList",
      "outputs": [
        {
          "name": "",
          "type": "bool"
        }
      ],
      "payable": false,
      "stateMutability": "nonpayable",
      "type": "function"
    },
    {
      "constant": false,
      "inputs": [
        {
          "name": "_address",
          "type": "address"
        }
      ],
      "name": "adminRemoveWhiteList",
      "outputs": [
        {
          "name": "",
          "type": "bool"
        }
      ],
      "payable": false,
      "stateMutability": "nonpayable",
      "type": "function"
    },
    {
      "constant": false,
      "inputs": [
        {
          "name": "_address",
          "type": "address"
        },
        {
          "name": "_val",
          "type": "bool"
        }
      ],
      "name": "adminUpdateBlackList",
      "outputs": [
        {
          "name": "",
          "type": "bool"
        }
      ],
      "payable": false,
      "stateMutability": "nonpayable",
      "type": "function"
    }
  ],
  "bytecode": "0x60606040526040805190810160405280601181526020017f50726f666974536861726520546f6b656e000000000000000000000000000000815250600390805190602001906200005192919062000306565b506040805190810160405280600681526020017f5053686172650000000000000000000000000000000000000000000000000000815250600490805190602001906200009f92919062000306565b506012600555600554600a0a63192cdad002600655620154cd6009553415620000c757600080fd5b738c7704ea2d934692b21419bf2a5ac6165a45ce98600e60006101000a81548173ffffffffffffffffffffffffffffffffffffffff021916908373ffffffffffffffffffffffffffffffffffffffff160217905550600654600080600e60009054906101000a900473ffffffffffffffffffffffffffffffffffffffff1673ffffffffffffffffffffffffffffffffffffffff1673ffffffffffffffffffffffffffffffffffffffff168152602001908152602001600020819055506001600c6000600e60009054906101000a900473ffffffffffffffffffffffffffffffffffffffff1673ffffffffffffffffffffffffffffffffffffffff1673ffffffffffffffffffffffffffffffffffffffff16815260200190815260200160002060006101000a81548160ff021916908315150217905550600e60009054906101000a900473ffffffffffffffffffffffffffffffffffffffff16600d80805460010190816200023691906200038d565b8154811015156200024357fe5b906000526020600020900160006101000a81548173ffffffffffffffffffffffffffffffffffffffff021916908373ffffffffffffffffffffffffffffffffffffffff160217905550600e60009054906101000a900473ffffffffffffffffffffffffffffffffffffffff1673ffffffffffffffffffffffffffffffffffffffff1660007fddf252ad1be2c89b69c2b068fc378daa952ba7f163c4a11628f55a4df523b3ef6006546040518082815260200191505060405180910390a3620003e4565b828054600181600116156101000203166002900490600052602060002090601f016020900481019282601f106200034957805160ff19168380011785556200037a565b828001600101855582156200037a579182015b82811115620003795782518255916020019190600101906200035c565b5b509050620003899190620003bc565b5090565b815481835581811511620003b757818360005260206000209182019101620003b69190620003bc565b5b505050565b620003e191905b80821115620003dd576000816000905550600101620003c3565b5090565b90565b6124ff80620003f46000396000f300606060405260043610610133576000357c0100000000000000000000000000000000000000000000000000000000900463ffffffff1680630191f99c1461064a57806306fdde031461069b578063095ea7b31461072957806313b69b191461078357806318160ddd146107d45780632194f3a2146107fd57806323b872dd1461085257806326767cfe146108cb578063313ce567146108e0578063640092a81461090957806366188463146109325780636f4ed7d51461098c57806370a08231146109b557806374fa677d14610a0257806386ccb1c514610a2b57806395d89b4114610a87578063a24bcf4614610b15578063a2bdedf414610b4c578063a9059cbb14610baf578063b0467deb14610c09578063c5c4744c14610c6c578063d73dd62314610c95578063dd62ed3e14610cef575b6000600e60009054906101000a900473ffffffffffffffffffffffffffffffffffffffff1673ffffffffffffffffffffffffffffffffffffffff163373ffffffffffffffffffffffffffffffffffffffff1614806101a957506006546101a6600954600754610d5b90919063ffffffff16565b11155b15156101b457600080fd5b600554600a0a6101cf60095434610d5b90919063ffffffff16565b101515156101dc57600080fd5b600b60003373ffffffffffffffffffffffffffffffffffffffff1673ffffffffffffffffffffffffffffffffffffffff16815260200190815260200160002060009054906101000a900460ff16806102815750600e60009054906101000a900473ffffffffffffffffffffffffffffffffffffffff1673ffffffffffffffffffffffffffffffffffffffff163373ffffffffffffffffffffffffffffffffffffffff16145b151561028c57600080fd5b600e60009054906101000a900473ffffffffffffffffffffffffffffffffffffffff1673ffffffffffffffffffffffffffffffffffffffff163373ffffffffffffffffffffffffffffffffffffffff1614156102f657346008819055506102f1610d96565b610647565b61030b34600754610f6790919063ffffffff16565b60078190555061031a34610f85565b905061038f81600080600e60009054906101000a900473ffffffffffffffffffffffffffffffffffffffff1673ffffffffffffffffffffffffffffffffffffffff1673ffffffffffffffffffffffffffffffffffffffff16815260200190815260200160002054610fa890919063ffffffff16565b600080600e60009054906101000a900473ffffffffffffffffffffffffffffffffffffffff1673ffffffffffffffffffffffffffffffffffffffff1673ffffffffffffffffffffffffffffffffffffffff168152602001908152602001600020819055506103fe600a33610fc1565b1580156104595750600e60009054906101000a900473ffffffffffffffffffffffffffffffffffffffff1673ffffffffffffffffffffffffffffffffffffffff163373ffffffffffffffffffffffffffffffffffffffff1614155b156104ca5733600a8080548091906001016104749190612482565b81548110151561048057fe5b906000526020600020900160006101000a81548173ffffffffffffffffffffffffffffffffffffffff021916908373ffffffffffffffffffffffffffffffffffffffff1602179055505b61051b816000803373ffffffffffffffffffffffffffffffffffffffff1673ffffffffffffffffffffffffffffffffffffffff16815260200190815260200160002054610f6790919063ffffffff16565b6000803373ffffffffffffffffffffffffffffffffffffffff1673ffffffffffffffffffffffffffffffffffffffff168152602001908152602001600020819055503373ffffffffffffffffffffffffffffffffffffffff16600e60009054906101000a900473ffffffffffffffffffffffffffffffffffffffff1673ffffffffffffffffffffffffffffffffffffffff167fddf252ad1be2c89b69c2b068fc378daa952ba7f163c4a11628f55a4df523b3ef836040518082815260200191505060405180910390a3600e60009054906101000a900473ffffffffffffffffffffffffffffffffffffffff1673ffffffffffffffffffffffffffffffffffffffff166108fc349081150290604051600060405180830381858888f19350505050151561064657600080fd5b5b50005b341561065557600080fd5b610681600480803573ffffffffffffffffffffffffffffffffffffffff16906020019091905050611064565b604051808215151515815260200191505060405180910390f35b34156106a657600080fd5b6106ae611123565b6040518080602001828103825283818151815260200191508051906020019080838360005b838110156106ee5780820151818401526020810190506106d3565b50505050905090810190601f16801561071b5780820380516001836020036101000a031916815260200191505b509250505060405180910390f35b341561073457600080fd5b610769600480803573ffffffffffffffffffffffffffffffffffffffff169060200190919080359060200190919050506111c1565b604051808215151515815260200191505060405180910390f35b341561078e57600080fd5b6107ba600480803573ffffffffffffffffffffffffffffffffffffffff169060200190919050506112b3565b604051808215151515815260200191505060405180910390f35b34156107df57600080fd5b6107e7611372565b6040518082815260200191505060405180910390f35b341561080857600080fd5b610810611378565b604051808273ffffffffffffffffffffffffffffffffffffffff1673ffffffffffffffffffffffffffffffffffffffff16815260200191505060405180910390f35b341561085d57600080fd5b6108b1600480803573ffffffffffffffffffffffffffffffffffffffff1690602001909190803573ffffffffffffffffffffffffffffffffffffffff1690602001909190803590602001909190505061139e565b604051808215151515815260200191505060405180910390f35b34156108d657600080fd5b6108de610d96565b005b34156108eb57600080fd5b6108f361148b565b6040518082815260200191505060405180910390f35b341561091457600080fd5b61091c611491565b6040518082815260200191505060405180910390f35b341561093d57600080fd5b610972600480803573ffffffffffffffffffffffffffffffffffffffff169060200190919080359060200190919050506115d9565b604051808215151515815260200191505060405180910390f35b341561099757600080fd5b61099f61186a565b6040518082815260200191505060405180910390f35b34156109c057600080fd5b6109ec600480803573ffffffffffffffffffffffffffffffffffffffff16906020019091905050611870565b6040518082815260200191505060405180910390f35b3415610a0d57600080fd5b610a156118b8565b6040518082815260200191505060405180910390f35b3415610a3657600080fd5b610a6d600480803573ffffffffffffffffffffffffffffffffffffffff1690602001909190803515159060200190919050506118be565b604051808215151515815260200191505060405180910390f35b3415610a9257600080fd5b610a9a6119f9565b6040518080602001828103825283818151815260200191508051906020019080838360005b83811015610ada578082015181840152602081019050610abf565b50505050905090810190601f168015610b075780820380516001836020036101000a031916815260200191505b509250505060405180910390f35b3415610b2057600080fd5b610b366004808035906020019091905050610f85565b6040518082815260200191505060405180910390f35b3415610b5757600080fd5b610b6d6004808035906020019091905050611a97565b604051808273ffffffffffffffffffffffffffffffffffffffff1673ffffffffffffffffffffffffffffffffffffffff16815260200191505060405180910390f35b3415610bba57600080fd5b610bef600480803573ffffffffffffffffffffffffffffffffffffffff16906020019091908035906020019091905050611ad6565b604051808215151515815260200191505060405180910390f35b3415610c1457600080fd5b610c2a6004808035906020019091905050611bc1565b604051808273ffffffffffffffffffffffffffffffffffffffff1673ffffffffffffffffffffffffffffffffffffffff16815260200191505060405180910390f35b3415610c7757600080fd5b610c7f611c05565b6040518082815260200191505060405180910390f35b3415610ca057600080fd5b610cd5600480803573ffffffffffffffffffffffffffffffffffffffff16906020019091908035906020019091905050611c0b565b604051808215151515815260200191505060405180910390f35b3415610cfa57600080fd5b610d45600480803573ffffffffffffffffffffffffffffffffffffffff1690602001909190803573ffffffffffffffffffffffffffffffffffffffff16906020019091905050611e07565b6040518082815260200191505060405180910390f35b6000806000841415610d705760009150610d8f565b8284029050828482811515610d8157fe5b04141515610d8b57fe5b8091505b5092915050565b6000806000610da3611491565b9250600091505b600a80549050821015610f62576000806000600a85815481101515610dcb57fe5b906000526020600020900160009054906101000a900473ffffffffffffffffffffffffffffffffffffffff1673ffffffffffffffffffffffffffffffffffffffff1673ffffffffffffffffffffffffffffffffffffffff16815260200190815260200160002054141515610f5557610ed883610eca600854600080600a88815481101515610e5557fe5b906000526020600020900160009054906101000a900473ffffffffffffffffffffffffffffffffffffffff1673ffffffffffffffffffffffffffffffffffffffff1673ffffffffffffffffffffffffffffffffffffffff16815260200190815260200160002054610d5b90919063ffffffff16565b611e8e90919063ffffffff16565b9050600a82815481101515610ee957fe5b906000526020600020900160009054906101000a900473ffffffffffffffffffffffffffffffffffffffff1673ffffffffffffffffffffffffffffffffffffffff166108fc829081150290604051600060405180830381858888f193505050501515610f5457600080fd5b5b8180600101925050610daa565b505050565b6000808284019050838110151515610f7b57fe5b8091505092915050565b600080610f9d60095484610d5b90919063ffffffff16565b905080915050919050565b6000828211151515610fb657fe5b818303905092915050565b600080600090505b8380549050811015611058578273ffffffffffffffffffffffffffffffffffffffff168482815481101515610ffa57fe5b906000526020600020900160009054906101000a900473ffffffffffffffffffffffffffffffffffffffff1673ffffffffffffffffffffffffffffffffffffffff16141561104b576001915061105d565b8080600101915050610fc9565b600091505b5092915050565b6000600e60009054906101000a900473ffffffffffffffffffffffffffffffffffffffff1673ffffffffffffffffffffffffffffffffffffffff163373ffffffffffffffffffffffffffffffffffffffff161415156110c257600080fd5b6000600b60008473ffffffffffffffffffffffffffffffffffffffff1673ffffffffffffffffffffffffffffffffffffffff16815260200190815260200160002060006101000a81548160ff02191690831515021790555060019050919050565b60038054600181600116156101000203166002900480601f0160208091040260200160405190810160405280929190818152602001828054600181600116156101000203166002900480156111b95780601f1061118e576101008083540402835291602001916111b9565b820191906000526020600020905b81548152906001019060200180831161119c57829003601f168201915b505050505081565b600081600260003373ffffffffffffffffffffffffffffffffffffffff1673ffffffffffffffffffffffffffffffffffffffff16815260200190815260200160002060008573ffffffffffffffffffffffffffffffffffffffff1673ffffffffffffffffffffffffffffffffffffffff168152602001908152602001600020819055508273ffffffffffffffffffffffffffffffffffffffff163373ffffffffffffffffffffffffffffffffffffffff167f8c5be1e5ebec7d5bd14f71427d1e84f3dd0314c0f7b2291e5b200ac8c7c3b925846040518082815260200191505060405180910390a36001905092915050565b6000600e60009054906101000a900473ffffffffffffffffffffffffffffffffffffffff1673ffffffffffffffffffffffffffffffffffffffff163373ffffffffffffffffffffffffffffffffffffffff1614151561131157600080fd5b6001600b60008473ffffffffffffffffffffffffffffffffffffffff1673ffffffffffffffffffffffffffffffffffffffff16815260200190815260200160002060006101000a81548160ff02191690831515021790555060019050919050565b60065481565b600e60009054906101000a900473ffffffffffffffffffffffffffffffffffffffff1681565b60006113ab600a84610fc1565b1580156114065750600e60009054906101000a900473ffffffffffffffffffffffffffffffffffffffff1673ffffffffffffffffffffffffffffffffffffffff168373ffffffffffffffffffffffffffffffffffffffff1614155b156114775782600a8080548091906001016114219190612482565b81548110151561142d57fe5b906000526020600020900160006101000a81548173ffffffffffffffffffffffffffffffffffffffff021916908373ffffffffffffffffffffffffffffffffffffffff1602179055505b611482848484611ea9565b90509392505050565b60055481565b60008060006006549150600090505b600d805490508110156115d457600c6000600d838154811015156114c057fe5b906000526020600020900160009054906101000a900473ffffffffffffffffffffffffffffffffffffffff1673ffffffffffffffffffffffffffffffffffffffff1673ffffffffffffffffffffffffffffffffffffffff16815260200190815260200160002060009054906101000a900460ff16156115c7576115c4600080600d8481548110151561154e57fe5b906000526020600020900160009054906101000a900473ffffffffffffffffffffffffffffffffffffffff1673ffffffffffffffffffffffffffffffffffffffff1673ffffffffffffffffffffffffffffffffffffffff1681526020019081526020016000205483610fa890919063ffffffff16565b91505b80806001019150506114a0565b505090565b600080600260003373ffffffffffffffffffffffffffffffffffffffff1673ffffffffffffffffffffffffffffffffffffffff16815260200190815260200160002060008573ffffffffffffffffffffffffffffffffffffffff1673ffffffffffffffffffffffffffffffffffffffff168152602001908152602001600020549050808311156116ea576000600260003373ffffffffffffffffffffffffffffffffffffffff1673ffffffffffffffffffffffffffffffffffffffff16815260200190815260200160002060008673ffffffffffffffffffffffffffffffffffffffff1673ffffffffffffffffffffffffffffffffffffffff1681526020019081526020016000208190555061177e565b6116fd8382610fa890919063ffffffff16565b600260003373ffffffffffffffffffffffffffffffffffffffff1673ffffffffffffffffffffffffffffffffffffffff16815260200190815260200160002060008673ffffffffffffffffffffffffffffffffffffffff1673ffffffffffffffffffffffffffffffffffffffff168152602001908152602001600020819055505b8373ffffffffffffffffffffffffffffffffffffffff163373ffffffffffffffffffffffffffffffffffffffff167f8c5be1e5ebec7d5bd14f71427d1e84f3dd0314c0f7b2291e5b200ac8c7c3b925600260003373ffffffffffffffffffffffffffffffffffffffff1673ffffffffffffffffffffffffffffffffffffffff16815260200190815260200160002060008873ffffffffffffffffffffffffffffffffffffffff1673ffffffffffffffffffffffffffffffffffffffff168152602001908152602001600020546040518082815260200191505060405180910390a3600191505092915050565b60085481565b60008060008373ffffffffffffffffffffffffffffffffffffffff1673ffffffffffffffffffffffffffffffffffffffff168152602001908152602001600020549050919050565b60095481565b6000600e60009054906101000a900473ffffffffffffffffffffffffffffffffffffffff1673ffffffffffffffffffffffffffffffffffffffff163373ffffffffffffffffffffffffffffffffffffffff1614151561191c57600080fd5b81600c60008573ffffffffffffffffffffffffffffffffffffffff1673ffffffffffffffffffffffffffffffffffffffff16815260200190815260200160002060006101000a81548160ff02191690831515021790555061197e600d84610fc1565b15156119ef5782600d80805460010190816119999190612482565b8154811015156119a557fe5b906000526020600020900160006101000a81548173ffffffffffffffffffffffffffffffffffffffff021916908373ffffffffffffffffffffffffffffffffffffffff1602179055505b6001905092915050565b60048054600181600116156101000203166002900480601f016020809104026020016040519081016040528092919081815260200182805460018160011615610100020316600290048015611a8f5780601f10611a6457610100808354040283529160200191611a8f565b820191906000526020600020905b815481529060010190602001808311611a7257829003601f168201915b505050505081565b600a81815481101515611aa657fe5b90600052602060002090016000915054906101000a900473ffffffffffffffffffffffffffffffffffffffff1681565b6000611ae3600a84610fc1565b158015611b3e5750600e60009054906101000a900473ffffffffffffffffffffffffffffffffffffffff1673ffffffffffffffffffffffffffffffffffffffff168373ffffffffffffffffffffffffffffffffffffffff1614155b15611baf5782600a808054809190600101611b599190612482565b815481101515611b6557fe5b906000526020600020900160006101000a81548173ffffffffffffffffffffffffffffffffffffffff021916908373ffffffffffffffffffffffffffffffffffffffff1602179055505b611bb98383612263565b905092915050565b6000600a82815481101515611bd257fe5b906000526020600020900160009054906101000a900473ffffffffffffffffffffffffffffffffffffffff169050919050565b60075481565b6000611c9c82600260003373ffffffffffffffffffffffffffffffffffffffff1673ffffffffffffffffffffffffffffffffffffffff16815260200190815260200160002060008673ffffffffffffffffffffffffffffffffffffffff1673ffffffffffffffffffffffffffffffffffffffff16815260200190815260200160002054610f6790919063ffffffff16565b600260003373ffffffffffffffffffffffffffffffffffffffff1673ffffffffffffffffffffffffffffffffffffffff16815260200190815260200160002060008573ffffffffffffffffffffffffffffffffffffffff1673ffffffffffffffffffffffffffffffffffffffff168152602001908152602001600020819055508273ffffffffffffffffffffffffffffffffffffffff163373ffffffffffffffffffffffffffffffffffffffff167f8c5be1e5ebec7d5bd14f71427d1e84f3dd0314c0f7b2291e5b200ac8c7c3b925600260003373ffffffffffffffffffffffffffffffffffffffff1673ffffffffffffffffffffffffffffffffffffffff16815260200190815260200160002060008773ffffffffffffffffffffffffffffffffffffffff1673ffffffffffffffffffffffffffffffffffffffff168152602001908152602001600020546040518082815260200191505060405180910390a36001905092915050565b6000600260008473ffffffffffffffffffffffffffffffffffffffff1673ffffffffffffffffffffffffffffffffffffffff16815260200190815260200160002060008373ffffffffffffffffffffffffffffffffffffffff1673ffffffffffffffffffffffffffffffffffffffff16815260200190815260200160002054905092915050565b6000808284811515611e9c57fe5b0490508091505092915050565b60008073ffffffffffffffffffffffffffffffffffffffff168373ffffffffffffffffffffffffffffffffffffffff1614151515611ee657600080fd5b6000808573ffffffffffffffffffffffffffffffffffffffff1673ffffffffffffffffffffffffffffffffffffffff168152602001908152602001600020548211151515611f3357600080fd5b600260008573ffffffffffffffffffffffffffffffffffffffff1673ffffffffffffffffffffffffffffffffffffffff16815260200190815260200160002060003373ffffffffffffffffffffffffffffffffffffffff1673ffffffffffffffffffffffffffffffffffffffff168152602001908152602001600020548211151515611fbe57600080fd5b61200f826000808773ffffffffffffffffffffffffffffffffffffffff1673ffffffffffffffffffffffffffffffffffffffff16815260200190815260200160002054610fa890919063ffffffff16565b6000808673ffffffffffffffffffffffffffffffffffffffff1673ffffffffffffffffffffffffffffffffffffffff168152602001908152602001600020819055506120a2826000808673ffffffffffffffffffffffffffffffffffffffff1673ffffffffffffffffffffffffffffffffffffffff16815260200190815260200160002054610f6790919063ffffffff16565b6000808573ffffffffffffffffffffffffffffffffffffffff1673ffffffffffffffffffffffffffffffffffffffff1681526020019081526020016000208190555061217382600260008773ffffffffffffffffffffffffffffffffffffffff1673ffffffffffffffffffffffffffffffffffffffff16815260200190815260200160002060003373ffffffffffffffffffffffffffffffffffffffff1673ffffffffffffffffffffffffffffffffffffffff16815260200190815260200160002054610fa890919063ffffffff16565b600260008673ffffffffffffffffffffffffffffffffffffffff1673ffffffffffffffffffffffffffffffffffffffff16815260200190815260200160002060003373ffffffffffffffffffffffffffffffffffffffff1673ffffffffffffffffffffffffffffffffffffffff168152602001908152602001600020819055508273ffffffffffffffffffffffffffffffffffffffff168473ffffffffffffffffffffffffffffffffffffffff167fddf252ad1be2c89b69c2b068fc378daa952ba7f163c4a11628f55a4df523b3ef846040518082815260200191505060405180910390a3600190509392505050565b60008073ffffffffffffffffffffffffffffffffffffffff168373ffffffffffffffffffffffffffffffffffffffff16141515156122a057600080fd5b6000803373ffffffffffffffffffffffffffffffffffffffff1673ffffffffffffffffffffffffffffffffffffffff1681526020019081526020016000205482111515156122ed57600080fd5b61233e826000803373ffffffffffffffffffffffffffffffffffffffff1673ffffffffffffffffffffffffffffffffffffffff16815260200190815260200160002054610fa890919063ffffffff16565b6000803373ffffffffffffffffffffffffffffffffffffffff1673ffffffffffffffffffffffffffffffffffffffff168152602001908152602001600020819055506123d1826000808673ffffffffffffffffffffffffffffffffffffffff1673ffffffffffffffffffffffffffffffffffffffff16815260200190815260200160002054610f6790919063ffffffff16565b6000808573ffffffffffffffffffffffffffffffffffffffff1673ffffffffffffffffffffffffffffffffffffffff168152602001908152602001600020819055508273ffffffffffffffffffffffffffffffffffffffff163373ffffffffffffffffffffffffffffffffffffffff167fddf252ad1be2c89b69c2b068fc378daa952ba7f163c4a11628f55a4df523b3ef846040518082815260200191505060405180910390a36001905092915050565b8154818355818115116124a9578183600052602060002091820191016124a891906124ae565b5b505050565b6124d091905b808211156124cc5760008160009055506001016124b4565b5090565b905600a165627a7a7230582085a9d2cfbdcf7e6ccf5383db235d10aa6da7f9e9c81dfbfa9b2b5cbfc26a3aa30029",
  "source": "pragma solidity ^0.4.15;\n\nimport 'zeppelin-solidity/contracts/token/ERC20/ERC20Basic.sol';\nimport 'zeppelin-solidity/contracts/token/ERC20/StandardToken.sol';\n\ncontract ProfitShare is StandardToken{\n    using SafeMath for uint256;\n\n    string public name = \"ProfitShare Token\";\n    string public symbol = \"PShare\";\n    uint256 public decimals = 18;\n\n    // 267M\n    uint256 public totalSupply = 422370000 * (uint256(10) ** decimals);\n    uint256 public totalRaised; // total ether raised (in wei)\n\n    uint256 public totalShareable; // total shareable ethers (in wei)\n\n    // 1 ETH = 87245 PShare\n    uint256 public coinPerETH = 87245;\n\n    /**\n     * List of all users\n     */\n    address[] public allUsers;\n\n    // whitelisted users\n    mapping(address => bool) whiteList;\n\n    mapping(address => bool) blackList;\n    address[] allBlacklist;\n\n    /**\n     * Address which will receive raised funds \n     * and owns the total supply of tokens\n     */\n    address public fundsWallet;\n\n\n    function ProfitShare() {\n        fundsWallet = 0x8c7704eA2d934692B21419Bf2a5AC6165a45CE98;\n        balances[fundsWallet] = totalSupply;\n\n        blackList[fundsWallet] = true;\n        allBlacklist[++allBlacklist.length] = fundsWallet;\n\n        // launch coins and send them to fundsWallet\n        Transfer(0x0, fundsWallet, totalSupply);\n    }\n\n    /**\n     * This function will be called when\n     * users send ETH to buy the tokens.\n     * \n     * We will calculate the Pshare amount and send to their wallets\n     */\n    function() isIcoOpen checkMin isInWhitelist payable{\n        if(msg.sender == fundsWallet){\n            totalShareable = msg.value;\n            return shareProfits();\n        }\n        totalRaised = totalRaised.add(msg.value);\n\n        uint256 tokenAmount = calculateTokenAmount(msg.value);\n\n        balances[fundsWallet] = balances[fundsWallet].sub(tokenAmount);\n\n        // If its the first time that the user is paying \n        if(!contains(allUsers, msg.sender) && msg.sender != fundsWallet){\n            allUsers[allUsers.length++] = msg.sender;\n        }\n\n        balances[msg.sender] = balances[msg.sender].add(tokenAmount);\n \n        Transfer(fundsWallet, msg.sender, tokenAmount);\n\n        // immediately transfer ether to fundsWallet\n        fundsWallet.transfer(msg.value);\n    }\n\n    /**\n     * Shares profit between all coin holders\n     */    \n    function shareProfits(){\n        uint256 totalActiveCoins = calculateTotalActiveCoins();\n        for (uint i = 0; i < allUsers.length; i++) {\n            if(balances[allUsers[i]] != 0){\n                uint256 shareMount = balances[allUsers[i]].mul(totalShareable).div(totalActiveCoins);\n                allUsers[i].transfer(shareMount);\n            }\n        }\n    }\n\n    /**\n     * Calculates total number of active coins\n     */\n    function calculateTotalActiveCoins() constant returns(uint256){\n        uint256 total = totalSupply;\n        for (uint i = 0; i < allBlacklist.length; i++) {\n            if(blackList[allBlacklist[i]]){\n                total = total.sub(balances[allBlacklist[i]]);\n            }\n        }\n    }\n\n    /**\n     * Returns allUsers elements\n     */\n    function getUser(uint256 index) constant returns(address){\n        return allUsers[index];\n    }\n\n    /**\n     * Calculates the total PShare amount\n     */\n    function calculateTokenAmount(uint256 weiAmount) constant returns(uint256) {\n        uint256 tokenAmount = weiAmount.mul(coinPerETH);\n        return tokenAmount;\n    }\n\n    /**\n     * Transfers tokens to a new wallet\n     * \n     * @param   _to -- destination address\n     * @param   _value -- wie amount\n     */\n    function transfer(address _to, uint _value) returns (bool) {\n        if(!contains(allUsers, _to) && _to != fundsWallet){\n            allUsers[allUsers.length++] = _to;\n        }\n        return super.transfer(_to, _value);\n    }\n\n    /**\n     * Transfers tokens from one wallet to an another wallet\n     * \n     * @param   _from -- source address\n     * @param   _to -- destination address\n     * @param   _value -- wie amount\n     */\n    function transferFrom(address _from, address _to, uint _value) returns (bool) {\n        if(!contains(allUsers, _to) && _to != fundsWallet){\n            allUsers[allUsers.length++] = _to;\n        }\n        return super.transferFrom(_from, _to, _value);\n    }\n\n    /**\n     * Throws an exception and reject the transaction when we don't have enough \n     * tokens.\n     * When all tokens are sold out, the contract can't accept new incoming ethers\n     * and need to reject transactions\n     */\n    modifier isIcoOpen() {\n        require(msg.sender == fundsWallet ||\n            totalRaised.mul(coinPerETH) <= totalSupply);\n        _;\n    }\n\n    /**\n     * Investors can buy at least 1 Pshare.\n     * Smaller amounts will be rejected.\n     */\n    modifier checkMin(){\n        require(msg.value.mul(coinPerETH) >= (uint256(10) ** decimals));\n        _;\n    }\n\n    /**\n     * Checks to make sure that the sender is admin.\n     * Will throw an exception and reject the transaction if the sender is not admin.\n     * We need this function for some restricted functions.\n     */\n    modifier isOwner(){\n        require(msg.sender == fundsWallet);\n        _;\n    }\n\n    /**\n     * Checks to make sure that the sender is in WhiteList\n     */\n    modifier isInWhitelist(){\n        require(whiteList[msg.sender] || msg.sender == fundsWallet);\n        _;\n    }\n\n\n    /**\n     * Check if an address is in the list or not\n     * Returns true if exists else false\n     */\n    function contains(address[] storage list, address addr) \n            internal constant returns (bool) {\n        for (uint i = 0; i < list.length; i++) {\n            if (list[i] == addr) {\n                return true;\n            }\n        }\n        return false;\n    }\n\n    /**\n     * Allows the admin to add user to whitelist\n     */\n    function adminAddWhiteList(address _address) isOwner returns(bool){\n        whiteList[_address] = true;\n        return true;\n    }\n\n    /**\n     * Allows the admin to remove a user from whitelist\n     */\n    function adminRemoveWhiteList(address _address) isOwner returns(bool){\n        whiteList[_address] = false;\n        return true;\n    }\n\n    /**\n     * Allows the admin to update the status of an address on blackList\n     */\n    function adminUpdateBlackList(address _address, bool _val) isOwner returns(bool){\n        blackList[_address] = _val;\n        if(!contains(allBlacklist, _address)){\n            allBlacklist[++allBlacklist.length] = _address;\n        }\n        return true;\n    }\n}\n",
  "sourcePath": "/home/projects/SolidityProfitShare/contracts/ProfitShare.sol",
  "compiler": {
    "name": "solc",
    "version": "0.4.19+commit.c4cbbb05.Emscripten.clang"
  },
  "schemaVersion": "1.0.1",
  "updatedAt": "2018-03-12T20:51:46.520Z"
}